:020000040800F2
:1020000000040020392200083B2200083B2200087F
:102010003B2200083B2200083B2200083B2200082C
:102020003B2200083B2200083B220008E173000825
:102030003B2200083B2200083B220008578500088D
:102040003B2200083B2200083B2200083B220008FC
:102050003B2200083B2200083B2200083B220008EC
:102060003B2200083B2200083B220008CD830008E9
:10207000E1830008F5830008098400081D84000836
:1020800031840008458400083B2200083B220008F8
:10209000A58700083B2200083B2200083B220008DD
:1020A0003B2200083B2200083B2200083B2200089C
:1020B0003B2200083B2200084D8700083B22000815
:1020C0003B2200083B2200083B2200083B2200087C
:1020D0003B2200083B2200083B2200083B2200086C
:1020E0003B2200083B2200083B2200083B2200085C
:1020F0003B2200083B2200083B2200083B2200084C
:102100003B2200083B2200083B2200083B2200083B
:102110003B2200083B2200083B2200083B2200082B
:102120003B2200083B2200083B2200083B2200081B
:102130003B2200083B2200083B2200083B2200080B
:102140003B2200083B2200083B2200083B220008FB
:102150003B2200083B2200083B2200083B220008EB
:1021600072B6264880F30888254880F309882548F8
:1021700025490860022080F31488BFF36F8F04F0B4
:1021800069FE04F046FC4FF0553020491B4A91424D
:102190003CBF41F8040BFAE71D49194A91423CBF84
:1021A00041F8040BFAE71B491B4A1C4B9A423EBFFD
:1021B00051F8040B42F8040BF8E700201849194ABB
:1021C00091423CBF41F8040BFAE704F047FE04F0EB
:1021D00042FE154C154DAC4203DA54F8041B8847F7
:1021E000F9E701F0EBFD124C124DAC4203DA54F862
:1021F000041B8847F9E704F02FBE0000000400200C
:10220000000C00200020000808ED00E00000002085
:102210000004002064990008000C0020280F002012
:10222000280F0020402500206021000860210008C0
:10223000602100086021000892E700F000F8FEE746
:102240002DE9F04FC1F80CD0C3689D46BDE8F08F72
:10225000002383F311882846A047002004F0C6FF1E
:10226000FEE704F01DFF00DFFEE7000053B94AB9A6
:10227000002908BF00281CBF4FF0FF314FF0FF308E
:1022800000F00CB8ADF1080C6DE904CE06F055FD78
:10229000DDF804E0DDE9022304B07047704700BFB9
:1022A0000220704701280DD805290BD8102A09D81B
:1022B000662301EB011103FB0010034B024433F8CA
:1022C00012007047012070472C90000801207047D1
:1022D00008B5FFF7FBFF08BD0120704701207047DC
:1022E00008B5FFF7FBFF08BD704708B5FFF7FCFF17
:1022F00008BD000013B502AB03E903000F4B1B78C8
:10230000B3B99DF8053073B16AB100F0E5FC04463D
:102310000146009800F0AEFC2046009902B0BDE8EE
:10232000104001F0CFBA009800F0BEFC0446F3E77D
:10233000009800F0D1FC0099F0E700BF300F0020BA
:10234000034610B400885C880A4640EA0440998835
:1023500010BCFFF7CFBF10B504460121FFF7F0FF17
:102360002146FFF7B5FF10BD10B504460021FFF769
:10237000E7FF2146FFF7B9FF10BD704708B500F031
:1023800091FBFFF7FAFFBDE8084046F2A81004F001
:1023900032BF08B5FFF7F2FFBDE8084004F030B8DF
:1023A00008B5FFF7EBFFBDE8084004F02DB838B5DD
:1023B00001210546FFF7C4FF2946044603F002F950
:1023C000002840D029462046FFF78AFFD8B3294687
:1023D000204603F083FDB0B32946204603F070FA8F
:1023E00088B32946204603F0F7FC60B3294620460F
:1023F00002F0A8FF38B32946204603F0BDFD10B314
:102400006B797BB147F65A439C4223D00ED847F6EE
:1024100001439C421BD047F603439C4215D0B4F5C0
:10242000F84F0ED02846FFF757FF0DE047F65B4305
:102430009C4212D047F65C439C42F3D100F0F0FF7F
:10244000F0E7FFF7A6FF002038BD00F0FBFFFFF725
:10245000A7FFF8E700F0F0FFE4E700F0F0FFE1E7A6
:1024600008B503F01AFF02F0F7FC00F027F8BDE80A
:102470000840012002F0EEBD08B500F024F800206D
:1024800002F0E8FDBDE8084003F00CBF70470120F2
:102490007047704738B50546FFF7F9FF044610B19D
:1024A0002846FFF7F6FF204638BD704710B50446B2
:1024B000FFF7ECFF2046FFF7EDFF10BD08B5002049
:1024C000FFF7F4FF08BD08B503F09CFDFFF7EEFF32
:1024D00008BD000010B503F095FD074B04461A78BF
:1024E000824207D0187003F02FFF044B186020467B
:1024F000FFF7DCFF10BD00BF280F00202C0F0020CD
:102500001FB56C4684E803009DF805300BB100F060
:10251000B7FE0023ADF80E3094E80300ADF80C10C0
:10252000C9B2029002AC29B994E8030000F0ECFDB6
:1025300004B010BD2046FFF70EFF0028F4D1F7E7E6
:102540000379012B02D1008800F0E6BB7047000040
:1025500010B50446002838D0031FDBB2A02B11D8D9
:102560001A4B0146186803F0C3FD20B1204600F065
:1025700035FE00F0CDFE204600F028FEBDE81040FC
:1025800000F0C6BE00F12003DBB2072B07D800F035
:1025900007040120A040C0B200F04CFEEEE700F1BD
:1025A0005B03DBB2022B05D8BDE81040243880B2B3
:1025B00003F048BD5834E4B21A2C06D8044B33F863
:1025C0001400BDE8104003F059BD10BD980D002067
:1025D000C491000808B5034648B3021FD2B2A02A2E
:1025E00005D800F0FBFDBDE8084000F091BE00F109
:1025F0002002D2B2072A07D800F007030120984032
:10260000C0B200F01FFEEEE700F15B02D2B2022A78
:1026100004D8BDE80840002003F014BD5833DBB2F5
:102620001A2B04D8BDE80840002003F027BD08BDE0
:1026300038B505460C46FFF78BFF1CB92846FFF757
:10264000C9FF38BD6420013C04F0D5FDA4B2F4E715
:1026500008B539280CBF50210021FFF7E9FF08BD5C
:1026600008B528B100F0E6FDBDE8084000F050BE16
:1026700008BD08B528B100F0E5FDBDE8084000F050
:1026800047BE08BD2DE9F843877981460C46457958
:1026900000F0C0FD3F090646F0B12E46E5B1C4F397
:1026A000072303F0F002402A09D004F12002D2B23D
:1026B000072A23D91FB903F0E003202B20D0A64B13
:1026C0005E7816F0040607D0022000F079FE00F0D4
:1026D000A1FD80F00106F6B2C4F303330B2B3DD805
:1026E000DFE813F01000100054005400AE003C006E
:1026F0003C003C00C50027013C013C010026EBE703
:102700003E46E9E7C4F30723C4F303270F2B88BF32
:102710003F01E4B285B157B104F12003DBB2072BCE
:10272000384600D92CB900F085FD00F0F1FD2046B7
:102730004CE000F095FDF8E72046FFF74BFF6FB146
:1027400004F12003DBB2072B384600D914B900F09E
:1027500079FD01E000F08CFD00F0DAFD002E00F0C4
:10276000598100F04FFD10F0010040F0538189F8CD
:10277000050000F041FD00F017FA484600F060F94E
:1027800000F03AFDBDE8F84300F018BAC4F307239F
:1027900003F0F003C4F30328202BE4B218BF4FEA80
:1027A00008182CB1012C34D0002D3CD0DFB1BEE78D
:1027B000694B5B78590714D45DB1B8F1000F04D0B0
:1027C000404600F037FD00F0A3FD0020FFF7C0FEFB
:1027D000C4E72846FFF7FEFEB8F1000FBED0404622
:1027E000B5E755B11FB94046FFF73AFFB6E7012FED
:1027F000B4D1404600F064FDB0E7002FAED14046B2
:10280000FFF737FF404600F069FD404600F044FD09
:10281000A4E715B1052FA1D8E5E7042F9ED84046BF
:10282000FFF727FF9AE7002FF9D0392C0CBF4FF4A0
:10283000FA50012004F0DFFC2046FFF7CBFE8DE7C5
:1028400014F4406FC4F3812307D0012B86D165B106
:10285000C4F3090003F012FC80E725B1C4F30900BA
:1028600003F0F0FB7AE72846FAE72846F2E714F48B
:10287000407F2DD1F5B914F0100018BF0F20C4F31C
:1028800042134FEA8303DBB21CBF9840C04304F0FD
:102890000F0202FA03F2C4F3812418BFC0B2D2B20D
:1028A000022C40EA02000DD0032C0ED0012C06D0E1
:1028B00000F052F903F0A6FBFFF7F8FD4EE700F039
:1028C00043F9F7E700F050F9F4E700F03AF9F1E7DF
:1028D000C4F301220DB3D207ECD514F0100318BFD6
:1028E0000F20C4F342124FEA8202D2B21CBF9040C2
:1028F000C04304F00F0101FA02F1C4F3812418BFB0
:10290000C3B2C9B2022C43EA01000CD0032C0DD093
:10291000012C05D000F06EF9CCE7012ACAD9DCE71A
:1029200000F060F9C6E700F06DF9C3E700F02AF99E
:10293000C0E7E7B2C4F3032435B1204600F034F910
:102940003846FFF78DFEB5E73846FFF792FE204682
:1029500000F034F9AEE700BF5C2200205FFA84F893
:10296000A8F1F003042B3CD8DFE803F003210D1499
:102970001D0035B1042F9DD8C4F3042000F028F9C0
:1029800098E7052FF7E7C4F30420002DE0D100F00D
:102990000BF98FE725B1C4F3042000F0FEF889E7B6
:1029A00000F0F8F886E71C4B5B785B0704D4C4F3AF
:1029B0000420002DCCD0EAE74DB1C4F30424204616
:1029C00000F0F2F80321204600F0D8FC72E7012065
:1029D00000F0F6FC012F7FF66DAF022000F0F0FC56
:1029E00068E73DB11FB14046FFF7B2FD62E7C4F3AF
:1029F0000420CCE75FB1B8F1390F0CBF4FF4FA50A7
:102A0000012004F0F8FB4046FFF7E4FD52E7C4F371
:102A100004209DE7BDE8F8835C22002038B50188DA
:102A20000446407900F084F9054600F0F3F800F020
:102A300087F829462046BDE83840FFF723BE00004E
:102A4000037910B50446B3B1FFF7B1FC68B900F0E3
:102A5000E1FB80B1637973B1074B5B785B070AD503
:102A6000BDE81040022000F0ABBC2046FFF7D6FFC7
:102A70002046FFF779FC10BD5C22002008B500203D
:102A800003F0E0FA002003F0F9FA00F0F9FBBDE8EA
:102A9000084000F03DBC08B500F0A8FBBDE80840C8
:102AA000FFF7ECBF08B500F0D5FBBDE80840FFF725
:102AB000F2BFC0F30333062BC2B213D094BF0E3360
:102AC000063303F00F03012B10D8F02A10D004D8DE
:102AD000E72A8CBF002001207047F42A14BF002091
:102AE00001207047E72A03D9F12AF7E70020704751
:102AF0000120704708B50346007930B1188800F00E
:102B00000BF9BDE80840FFF7D4BF08BD82B002ABA7
:102B100003E9030002B0704782B002AB03E903008F
:102B200002B07047704708B5FFF7FCFF08BD000012
:102B300008B5FFF7F8FF014B187008BD590F0020CA
:102B40007047FFF7F5BF0000024B1B781843FFF7F3
:102B5000EFBF00BF590F0020024B1B781840FFF752
:102B6000E7BF00BF590F0020024B1B785840FFF70A
:102B7000DFBF00BF590F0020704708B5FFF7FCFF0B
:102B800008BD000008B5FFF7F8FF014B187008BD3D
:102B9000580F00200020FFF7F5BF012303FA00F0D3
:102BA000C0B2FFF7EFBF00000123034A8340107853
:102BB0001843C0B2FFF7E6BF580F00200123034AB5
:102BC0008340107820EA0300FFF7DCBF580F002095
:102BD0000123034A834010785840C0B2FFF7D2BFA8
:102BE000580F0020024B1B781843FFF7CBBF00BFE4
:102BF000580F0020024B1B781840FFF7C3BF00BFDF
:102C0000580F0020024B1B785840FFF7BBBF00BF96
:102C1000580F0020704701F00703C90830B501EBD9
:102C20004101012401390A4400219C40E4B212F818
:102C3000015F20FA01F343F300036B4023400131AD
:102C40005D4003291570F2D130BD002210B500F0AF
:102C50000704C00800EB4000014410468B5CE340D1
:102C600003F00103934001321843032AC0B2F5D1A7
:102C700010BD000017B40C46C0F307210529ADF8BC
:102C800004000CD89DF80430102B08D8204603EB24
:102C90000113044A194403B010BCFFF7BCBF03B0D2
:102CA00010BC7047310F002082B0ADF80400C0F3B3
:102CB000072005280AD89DF80430102B06D80549AE
:102CC00000EB0010184402B0FFF7BFBF002002B0B5
:102CD000704700BF310F002073B503240C4BADF8D3
:102CE00004001E780B4B1B781E4346FA04F3DB07E7
:102CF00005D4013CF9D20025284602B070BDE5B2EA
:102D00002846019900F0EFFD80B20128F1D0F3E7E9
:102D1000580F0020590F002007B5ADF804000198A6
:102D2000FFF7DAFF019903B05DF804EB00F0DBBDBB
:102D300013B5104BADF804101B782BB1019802B0FD
:102D4000BDE81040FFF7E8BF70B10198FFF7C4FF7E
:102D5000044601460198FFF78DFF2046019902B015
:102D6000BDE8104000F0BFBD0198FFF79DFF04468D
:102D7000F3E700BF300F002010B5012404FA02F27F
:102D800004FA01F11143CAB20140914204FA03F47A
:102D900006BF2043C0B2A04310BD000008B51346D3
:102DA0000A46014603480078FFF7E6FFBDE8084001
:102DB000FFF7E8BE580F0020F8B50C4B0C4E1C78FE
:102DC0000C4D3378A34200D1F8BD05EBC40335F8B0
:102DD00034005F889A88D98840EA074042EA014176
:102DE0000134FFF799FE04F00704EAE75A0F0020C8
:102DF0005B0F00205C0F0020064B10B418885C8825
:102E00009A88D98840EA044042EA014110BCFFF7A1
:102E100083BE00BF9C0F0020194AF8B593790F2B91
:102E20000AD8537943B1174B17491B780D78168888
:102E30005788164CAB4200D1F8BD04EBC3010879AA
:102E4000D0B134F83300B04216D14879A0B94888DF
:102E5000C01B80B2C7280FD80120937960F30713F5
:102E600093718B7960F3071305488B71FFF7E8FDC9
:102E7000BDE8F840FFF7A0BF013303F00703D9E72F
:102E80009C0F00205A0F00205B0F00205C0F0020D9
:102E9000F0B50D4B0D4C1B7826780D4CB34201D18B
:102EA0000020F0BD04EBC3056F788F4206D114F803
:102EB0003370874202D16D79954203D1013303F01B
:102EC0000703EBE70120ECE75A0F00205B0F00201F
:102ED0005C0F00202DE9FF47E9460446894D014675
:102EE0000622484606F091F82B7994F80080617824
:102EF0006779B4F802A02279C3B9002A00F0C7802C
:102F0000002F00F0F6802046FFF7F4FD002800F0C7
:102F1000F08008222146284606F077F82846FFF779
:102F20000FFBFFF779FFFFF767FFB0E06B886E7963
:102F3000AAEB03039BB2002E00F0AB80C72B00F27C
:102F40008480002A00F0A380AB7928880F2B228888
:102F50004ED8904211D1002F45D1012262F30713C0
:102F6000AB71FFF749FF2846FFF76AFDAB79A37104
:102F70000025284604B0BDE8F087A7BB3A46404686
:102F8000FFF786FF4046FFF783FF05460028EFD195
:102F90000098FFF7C1FEC0F30332032AC3B208D87A
:102FA000012A10D910F4706F12D0A2790F2A0FD80D
:102FB000DFE7063202F00F02012A0ED92046FFF7A2
:102FC0003FFD3546D5E710F4706F01D0002BD0D00F
:102FD0002033DBB2072BCCD9F0E7EF2BC9D90F3365
:102FE000DBB2022BF7E7AB7943F00103AB71BFE72C
:102FF00090420AD14FB92046A371FFF721FD082264
:103000002146284606F001F88DE72046FFF772FDBD
:1030100000286ED0002F6CD0AB791F2B0FD92A88D7
:1030200002A8ADF808202A79ADF80AA08DF80C2086
:1030300000228DF80E308DF80D20FFF701FD0822DB
:103040002146304805F0E1FF6BE7AB790F2B0ED836
:1030500099E80300FFF75AFD2846FFF7F1FC082224
:103060000021284605F0C9FFFFF7C6FE80E772B1D0
:10307000298822889142C8D1002FC6D12046A37149
:10308000FFF7DEFC08223946284605F0B6FF012589
:103090006FE7C72B31D8002AF9D057B32A88238885
:1030A0009A421DD1AB79DA0714D40F2B12D9A37130
:1030B00003F0F003F02B06D0A379C3F3031201321F
:1030C00062F30713A3712046FFF7BAFC08222146DA
:1030D0000C4897E7082221460A4805F096FFD6E7F4
:1030E0002046FFF707FD0028A9D1AB7943F0010383
:1030F000AB712046FFF7A4FCC9E799E80300FFF78E
:1031000005FDACE79C0F0020F0B585B06C4684E867
:1031100003002046FFF7DEFE284F0646284D68B123
:103120009DF804301BB194E80300FFF7F5FC254C33
:1031300028783B78834226D105B0F0BD02AB94E8F5
:10314000030083E803009DF8041038782A780029EA
:10315000EDD0441C04F0070494420AD01946194BE0
:10316000082203EBC00005F050FF3C70FFF724FE7F
:10317000DDE7FFF797FC0822314613483E702E70BA
:1031800005F03BFFD3E704EBC000FFF7A3FE0028E8
:10319000D2D02B7834F8330004EBC3035E889A88CE
:1031A000D98840EA064042EA0141FFF7B5FC2B7896
:1031B000013303F007032B70BAE700BF5B0F002059
:1031C0005A0F00205C0F00209C0F0020024B01468C
:1031D000186802F0F3BF00BF980D0020024B0146B3
:1031E000186803F003B800BF980D0020014B186861
:1031F00003F014B8980D0020014B1878C0087047F0
:10320000C40F0020024B187800F00700704700BF81
:10321000C40F0020034B187810F0070018BF0120DE
:10322000704700BFC40F0020014B1878704700BFE3
:10323000E80F0020024B1A7810431870704700BF47
:10324000E80F0020024A137823EA00031370704746
:10325000E80F00200022014B1A707047E80F002091
:10326000024B1A7810431870704700BFE70F002018
:10327000024A137823EA000313707047E70F002017
:103280000022014B1A707047E70F0020704708B505
:10329000FFF7FCFF08BD000008B5054A137803429C
:1032A00004D023EA00001070FFF7F1FF08BD00BF53
:1032B000C50F0020704708B5FFF7FCFF08BD0000F0
:1032C00010B505490B7830EA030403D003430B70B3
:1032D000FFF7F1FF10BD00BFC60F002008B5054A7B
:1032E0001378034204D023EA00001070FFF7E3FFD5
:1032F00008BD00BFC60F002008B5044B1A781AB1EC
:1033000000201870FFF7D7FF08BD00BFC60F0020D0
:1033100010B5124B124A1B781278124C1343124A02
:1033200020681278037032B11343037002F0C2FEBA
:1033300008B1FFF7E1FF2468202220460B4905F081
:103340004CFE48B121462022084805F05EFE20468A
:10335000BDE8104002F05EBE10BD00BFE80F0020C7
:10336000E70F0020980D0020C60F0020A40F0020BA
:10337000704708B5FFF7FCFF08BD0000094A10B50B
:10338000527852070AD5084C41EAC0012170FFF774
:103390000BFC2078C008FFF7ECFF10BDBDE8104023
:1033A000FFF702BC5C220020C40F0020002008B5FB
:1033B000024B1870FFF7DDFF08BD00BFC40F0020EF
:1033C00008B50A4A137823EA0000107042070CD1AE
:1033D00098420AD0064B5B785B0706D5C008FFF71A
:1033E000EDFBBDE80840FFF7E1BF08BDC40F0020BA
:1033F0005C220020094A08B55378C3F3800181425A
:103400000AD060F382035370108800F03CF8BDE8E6
:1034100008400220FFF7D4BF08BD00BF5C22002097
:10342000044B5878C0F3800080F0010000F00100E8
:10343000FFF7E0BF5C2200200120FFF7DBBF002088
:10344000FFF7D8BF08B500F05BFDBDE808404FF6B8
:10345000FF71002000F036BD08B5002000F0CBFC65
:103460004FF6E663984203D1BDE8084002F04AB83F
:10347000002008BD022000F0AFBC032000F0ACBC6F
:10348000042000F0B8BC0146042000F01BBD01463A
:103490000F2000F025BD0146132000F021BD0020C3
:1034A000FFF7F9BF08B50020FFF7F1FFFFF7F7FFBF
:1034B00008BD000013B5002400F022FD4FF6E661C0
:1034C000002000F0FFFC0021022000F0EDFC0021B4
:1034D000032000F0E9FC1C4B4FF4A05104201C70A9
:1034E00000F0F0FC2146062000F0DEFCFF21072062
:1034F00000F0DAFC2146082000F0F2FC21462420EE
:1035000000F0D2FC2146172000F0CEFC21460C2012
:1035100000F0CAFC21460D2000F0C6FC002300226A
:103520006846CDE900231821082200F0A3FC2146BB
:10353000202000F0D5FC204601F0F9FF02F021F830
:10354000FFF7B0FF02B010BD590F0020FFF7B2BF68
:1035500001460E2000F0A8BC73B502F02DFF0B4D04
:1035600004462B8883420ED00026ADF8006002F09E
:1035700023FFADF80460ADF8020002AB13E90300CD
:10358000FEF7BEFF2C8002B070BD00BFEA0F002026
:1035900008B502F0D9FE024B1860024B186008BD56
:1035A00008100020041000207047704708B5FFF78E
:1035B000FCFF08BD704708B5FFF7FCFF08BD012000
:1035C0007047000008B5054800F076FA00F096FC58
:1035D000FFF7EAFFFFF7EAFF08BD00BFB13A0008B6
:1035E0000120704708B5FFF7FBFF08BD7047704723
:1035F00008B5FFF7FBFFFFF7FAFF08BD08B500F0BD
:103600007DFAFEF752FFBDE8084001F0F5BC08B5B1
:1036100002F098FE01F0C5FF00F03EFBFFF7EEFF61
:10362000FFF7C9FF08BD00002DE9F04F85B0FFF797
:10363000C6FF40B9FFF790FF01F00EFC05B0BDE8F2
:10364000F04FFEF747BF304F00F040FB3E460024EE
:10365000E0B256F8045B00F07BFA052C50D08542AE
:1036600004F10104F4D0294B1B789B0701D500F02D
:1036700075FAFFF7B7FF002600905FFA86F9484613
:1036800000F066FA57F8043B0546984232D0002411
:103690004FF00108434001930DF1080A019B13EA22
:1036A000080F1FD0009B15EA080F14BF4FF0010B45
:1036B0004FF0000B8BB18DF808408DF8099002F0A7
:1036C0007BFE4FF00103ADF80A008DF80C308DF849
:1036D0000DB09AE80300FEF713FF5A46214648460C
:1036E00001F01EFB0134E4B2112C4FEA4808D5D199
:1036F00047F8045C0136062EBFD1FFF749FF9BE770
:103700008542B0D196E700BFEC0F00200C100020DE
:1037100038B500F0F3F8B0F5A44F044643D2B0F545
:10372000A04F80F0AE80DF2816D8CC2800F28C8025
:10373000A7280AD8A42879D8012804D0031F9BB24F
:10374000A12B28BF0024204638BDA0F1A8039BB2BE
:103750001A2B71D90024F6E7B0F5804F19D2B0F5D5
:10376000005F80F09D80E728EDD9A0F580739BB2C3
:10377000B3F5F85FEED2C0F3072000F043F9054639
:10378000E0B200F0BBF82D0205F4F85540EA05045C
:1037900050E0C0B200F0B2F804F47064204340F48A
:1037A000204084B2CFE7B0F5A54F22D245F25F2387
:1037B000984253D845F23F2398420FD845F21F2331
:1037C000984244D8012300F00304C0F38502A340CB
:1037D00043EA421343F40D439CB2B4E7012300F0E3
:1037E0000304C0F38202A34043EA421343F40C43B0
:1037F000F2E745F2BF2398420AD845F29F23984248
:1038000000F01F0035D84AF2F40343EA00249AE797
:10381000A0F5A543403B9BB21F2B9BD8040204F4A8
:10382000F85444F4204444F0F0048CE7A0F124045C
:1038300044F48044A4B286E7214B5834E4B233F810
:10384000144044F488447EE740F4A044F2E74AF28E
:10385000F10300F01F0443EA042474E7012300F09D
:103860000304C0F38202A34043EA421343F40A4331
:10387000B2E700F0C7F8040204F4F85444F400542A
:1038800061E700F01F0000F0BDF8C306C4F3431465
:1038900048BF0001240200B2044344F41044C9E7C5
:1038A000C0F3042000F0AEF80546E0B200F026F8C0
:1038B0002D0205F4F855054345F40055ACB242E736
:1038C000FA91000882B0ADF80410C1F30721052970
:1038D00006D89DF80420102A02D802B002F0DCB904
:1038E000002002B0704707B5ADF804100199FFF74A
:1038F000E9FF03B05DF804EBFFF70ABFE7284FD8F4
:10390000DF2807D8312864D00ED8292857D02A2894
:1039100066D07047A0F1E003072B41D8DFE803F041
:103920001540232831403C41392804D0822802D058
:1039300035283FD07047324B1A7892071FD15B78F9
:1039400013F0080F18BF292070472D4A1378D907A4
:103950004DD4527812F0010F22D013F0100F14BF83
:103960000020E3207047264B1B7813F0040FF3E789
:10397000234A137859073CD45278D207EDD5E0207A
:1039800070471F4B5A7891070AD51B7813F0100F18
:1039900014BF0020E7207047194B1B781A07F5D495
:1039A0007047174A1378190725D452789107EDD537
:1039B000E4207047124B1B7813F0200FC2E7104B26
:1039C0001A78920619D45B7813F0080F18BF3920C3
:1039D00070470B4B1B7813F0400F18BF2A2070471D
:1039E000074B1B7813F0400F18BF31207047392068
:1039F0007047E2207047E62070473520D0E700BFCF
:103A00005C220020294A1378590707D500F01801D5
:103A1000082927D100F0F70040F00400190707D566
:103A200000F01801182926D100F0E70040F014003A
:103A30005278D10707D500F01801082924D100F0E9
:103A4000F70040F00100920707D500F01802182A8D
:103A500023D100F0E70040F01100DB0648BF00F082
:103A6000E700704700F01401042904BF00F0FB00D8
:103A700040F00800D2E700F01401142904BF00F060
:103A8000EB0040F01800D3E700F01101012904BF5A
:103A900000F0FE0040F00800D5E700F01102112A06
:103AA00004BF00F0EE0040F01800D6E75C220020D2
:103AB0000020704700207047014B1860704700BF1E
:103AC0009C0D0020FFF7BEBC08B500F0FFF840F6E3
:103AD000B83003F090FB00F0F9F8002000F038F85F
:103AE000C30705D5FFF7EEFFBDE8084002F088BC2C
:103AF00008BD08B5FFF7E8FF08BD000008B5FFF7EF
:103B0000ABFC08B9FFF722FDFFF7B4FC084B1870B7
:103B1000FFF7B6FC074B1880FFF7EBFFFFF7ADFC94
:103B2000FFF70FF8044B1878BDE80840FFF725B8F9
:103B30000C1000205C220020580F0020704708B5B0
:103B4000FFF7FCFF08BD704708B5FFF7FCFF08BD95
:103B5000014B53F8200070477822002070474FF443
:103B6000076003F0C1B900BF00BF00BF00BF00BFC6
:103B700000BF00BF00BF00BF00BF00BF00BF00BF4D
:103B800000BF00BF00BF00BF00BF704708B5FFF710
:103B9000E6FF08BD08B5302383F31188012100F04A
:103BA0000F039940032220F00F0004F08BFC002348
:103BB00083F3118808BD000038B506240B4D55F875
:103BC000040B421C01D0FFF7E5FF013C14F0FF0499
:103BD000F5D11124064D55F8040B431C01D0FFF715
:103BE000D9FF013C14F0FF04F5D138BD74920008F0
:103BF000309200082DE9F843254F064657F821304A
:103C00000D465C1C40D0302282F311884FF0010831
:103C100023F00F0903F00F0308FA03F421460622EC
:103C2000484604F04FFCC9F81440002484F311887E
:103C3000FFF799FF11234146DFF858C05CF8042BC9
:103C4000501C23D022F00F00806802F00F0220FAEF
:103C500002F212F0010F0CBF0A460022013B13F0E2
:103C6000FF0344EA02044FEA4101E7D157F8250077
:103C7000431C01D0FFF78EFF211E18BF01212846EB
:103C8000FFF784FF46F82540BDE8F8830022E5E70A
:103C9000749200083092000810B51824FFF78CFFCA
:103CA00022460021074805F0A8F9224600210648CF
:103CB00005F0A3F9062000F03BF8BDE81040FFF73F
:103CC0003EBF00BF782200206022002070B586B081
:103CD00018220021684605F090F90024E1B26846F8
:103CE0000134FFF787FF062CF8D1182269460E48E9
:103CF00005F073F9002814BF0126002607D06C4692
:103D0000094D0FCC0FC594E8030085E80300334646
:103D100006220649044800F00DF80446FFF714FF98
:103D2000204606B070BD00BF60220020782200202F
:103D3000704700002DE9F04107460E461446DFF8B3
:103D4000508033B1012388F8003002F0FDFA114BA6
:103D5000186098F800501DB900252846BDE8F0818C
:103D60000C4B186802F034FB0428F5D9A400224655
:103D70003946304605F031F940B1224639463046E1
:103D800005F043F9002388F80030E6E70546F9E737
:103D9000141000201010002008B502F04BFEFFF7B1
:103DA00036FCBDE8084002F05BBE08B502F05EFEDE
:103DB000FFF73AFCBDE8084002F076BE08B502F015
:103DC00087FA02F034FEFFF7FDFBFFF7E5FFFFF790
:103DD000ECFFFFF70DFCFAE7002307B501460122CF
:103DE0000DF107008DF8073000F08CF89DF8070002
:103DF00003B05DF804FB002307B5014602220DF174
:103E00000600ADF8063000F07DF8BDF8060003B0FE
:103E10005DF804FB07B50422002301460DEB020008
:103E2000019300F06FF8019803B05DF804FB07B54B
:103E300001228DF8071001460DF1070000F067F828
:103E400003B05DF804FB07B50222ADF80610014689
:103E50000DF1060000F05BF803B05DF804FB07B558
:103E60000422019101460DEB020000F050F803B06E
:103E70005DF804FBF8B505461446D31D23F007038F
:103E800000AFADEB030D68460E4600F03BF822464E
:103E90006946284605F0A1F820B122463146284659
:103EA00000F035F8BD46F8BD38B50C460546FFF7BD
:103EB00093FFA04205D021462846BDE83840FFF7D1
:103EC000B6BF38BD38B50C460546FFF794FFA04293
:103ED00005D021462846BDE83840FFF7B4BF38BDBD
:103EE00038B50C460546FFF795FFA04205D02146A0
:103EF0002846BDE83840FFF7B2BF38BD00F09CB996
:103F000000F03CB80B460146184600F051B80B468D
:103F10000146184600F0DAB808B5064B4FF4806247
:103F20000021184605F069F84FF48162C0F80024BA
:103F300008BD00BF1810002010B5064C94F80434DA
:103F400033B900F037FA10B1012084F8040410BD31
:103F50000220FCE71810002010B5074C94F8043438
:103F60003BB100F06FFA18B10023012084F804344B
:103F700010BD0220FCE700BF1810002038B5FFF785
:103F8000DBFF044618B9FFF7E7FF204638BD00F015
:103F90001DFA0546FFF7C0FF012C06D1FFF7DCFF35
:103FA00000280CBF002505F001052C46EDE70000B8
:103FB00008B5034608469918B1F5806F05D804493D
:103FC000194405F022F8012008BD0020FCE700BFDD
:103FD00018100020F8B506460F4615460024AC42DE
:103FE00001D10120F8BD07EB440106EB440000F0CD
:103FF0007DFA0028F6D00134F1E7F8B506460F4601
:1040000015460024AC4201D10120F8BD37F8141048
:1040100006EB440000F0FCF90028F6D00134F1E78B
:1040200073B500F0D3F9044628B3FFF785FF4FF4CA
:104030000072054614490020FFF7DFFF124E0446C8
:1040400088B10FA3D3E900234FF48061304601F01B
:10405000FEFB0422CDE9000169464FF48060FFF7C2
:10406000CCFF4400E4B2012D01D1FFF775FF4FF4FE
:104070008163C6F80034204602B070BDAFF3008003
:1040800025232284E49CF2CB18100020044BD3F8A3
:104090000034B3F5006F01D3FFF7C2BF01207047B2
:1040A0001810002010B5084C0146D4F8000400F0A8
:1040B000AFF940B1D4F800340233C4F80034BDE89D
:1040C0001040FFF7E3BF10BD181000208318B3F5B0
:1040D000806F2DE9F74F83468846154620D8544C0B
:1040E00004442146404604F078FF002800F09E80FA
:1040F0002A464146204604F088FFFFF71DFF81460F
:1041000060B10026002785B9FFF7C0FF0446B9F16A
:10411000010F06D1FFF720FF10B102E0FFF71CFFEF
:104120000024204603B0BDE8F08F012D98F8000070
:1041300026D01BF0010F23D1BBF5804F33D298F866
:10414000013040EA0323012B1AD8002B0CBF6FF07B
:104150007F036FF05F03002043EA5B2363F30700F4
:104160004FEA5B0363F30F2080B2FFF79BFF012848
:10417000044656D1023D0BF1020B08F10208C2E7DA
:10418000BBF13F0F0FD84BF04003DBB243EA0020F6
:10419000FFF788FF0128044643D1013D0BF1010BD5
:1041A00008F10108AFE7052DAA4628BF4FF0050A20
:1041B000CBF3024343EACA03CDE9006752464146C6
:1041C0008DF800300DF103004FEA1B238DF801300C
:1041D0008DF802B004F019FFBDF80000FFF762FF90
:1041E000012804461DD1BDF80200FFF75BFF01283E
:1041F000044616D1012D0FD0BDF80400FFF752FF81
:10420000012804460DD1032D06D9BDF80600FFF79D
:1042100049FF0128044604D1A5EB0A05D344D04444
:1042200071E714F0FD0F18BF002470E7012478E750
:1042300018100020000000002DE9FF47FFF76CFE7A
:1042400000F008F930B9FFF767FE0024204604B0FB
:10425000BDE8F0874FF4007200205549FFF7BAFE21
:10426000534D00287FD050A3D3E900234FF4806141
:10427000284601F0ECFA06460C4604224FF4806012
:1042800002A9FFF7A7FEDDE902239C4208BF964280
:1042900001D0FFF741FE4FF48167002638460DF14B
:1042A000060100F023F9002851D0BDF80630002B9C
:1042B0004CD0C3F38111012907F10204ADF8083095
:1042C000DAB253D0022957D0002967D120460DF128
:1042D0000A0100F00BF9002860D09DF809309DF824
:1042E0000A109DF8082043EA01234FEA02485BBA0E
:1042F0009BB208F4E02848EA0308C2F3C20908EBBD
:104300000903B3F5806F07F104044FEAD20A45D8D8
:1043100012F0300F05D0204603A900F0E7F8E8B30B
:10432000BC1D1AF0040F06D020460DF10E0100F05E
:10433000DDF898B302344A460DF10B0105EB080095
:1043400004F063FEB4F5006F2746A7D30120C5F83B
:10435000007400BBFFF764FE044600287FF476AFCC
:10436000FFF7DAFD72E7FFF7D7FD6CE702F03F02D7
:10437000C3F30723AB54E5E7510201F478511B0A5C
:1043800041EA4303591CB1F5806F07D2C2F34012D2
:10439000EA546E54D6E7FFF779FEDDE727460020A2
:1043A000D5E700BFAFF3008025232284E49CF2CB45
:1043B00018100020002108B5034803F083FAB0FA72
:1043C00080F0400908BD00BF78240020F8B5002522
:1043D00001240C4F0C4E3B68AB4201D82046F8BD7F
:1043E00030680A4B1968036829445B6998470128BB
:1043F000306888BF002403F00BFA012888BF00242E
:104400000135E8E7A00D002020140020A40D0020B5
:104410000A4B73B51D68CB430646ADF80630084B12
:104420000222186871190368DC680DF10603A047C1
:10443000B0FA80F0400902B070BD00BFA80D0020A6
:104440002014002008B5024803F04AFA012008BDF4
:10445000782400202DE9F0471D4B1E4D00242B60D1
:10446000FFF7F0FF2868A2460368DFF86C905B68EE
:1044700098470646194B8768D3F8E027184B03EA9C
:104480008228B168A1421FD90139091B2868C9F8DF
:10449000001003F0DBF9404503D3D9F80070013474
:1044A000EFE7D9F80010286803F0DDF98244BAF587
:1044B000006FF4D3D9F800100A4B7F1A28681F60E8
:1044C00003F0C4F9084B18600120BDE8F08700BF75
:1044D0007824002020140020A40D002000F0FF1FED
:1044E00000FCFF03A00D0020A80D0020064B10B516
:1044F0000C461968054B0144186803F0C1F903889C
:104500000120DB43238010BDA80D002020140020D3
:1045100030B510F47F4F85B00190C0F30725C0F38C
:1045200007420DD109B1304B9A5C13461146002069
:1045300063F3070061F30F2062F3174005B030BD4D
:104540009DF80440002937D0274B995C0620FF23B3
:1045500060435A1BB0FBF3F06FF05403434303EB8B
:10456000440303EB4303DBB203FB05F4C3F1FF0396
:104570006B4324121B12C4F1FF04C3F1FF034A432F
:104580004C434B43C2F30722C4F30724C3F307236E
:10459000C9B2062824D801A555F820F02F450008F7
:1045A000BD450008C3450008CD450008D7450008B3
:1045B000E14500082F4500081146C7E70B46214694
:1045C000B5E718460B4611460246B0E70B461146C2
:1045D0001A462346ABE7184613460A460146A6E7A5
:1045E00013462246A3E700BFD4920008012184B0FD
:1045F00004B0FFF78DBF012830B501D8C0B230BD7F
:10460000B0F5F75F88BFFF224FF001049EBF42095B
:104610000832D2B2A3185910C3F34705C3F34F03AE
:104620005B439BB2984206D2013DEAB29442F1D973
:10463000013CE0B2E3E7FF2902D00135ECB2F5E737
:104640000846DCE784B0019000208DF80420019B2F
:10465000DAB262F30700C3F3072262F30F20C3F359
:10466000074363F3174004B07047000084B0019023
:1046700000200B4B03EB410393F866309B1A8DF837
:104680000430019BDAB262F30700C3F3072262F33E
:104690000F20C3F3074363F3174004B0704700BF14
:1046A000000C002084B003EB8302BDF810300190B1
:1046B00013449BB2FF2B28BFFF23DB43C0F307400B
:1046C000DBB20344FF2B28BFFF2300208DF8063008
:1046D000019BDAB262F30700C3F3072262F30F20F3
:1046E000C3F3074363F3174004B0704700291FB5B5
:1046F000B8BF4942002AB8BF524209B2090112B2FA
:10470000FF294FEA0212A8BFFF21FF2AA8BFFF22FC
:10471000BDF8184009B2234412B29BB29142D4BFF3
:104720005B189B189BB2FF2B28BFFF23DB43019034
:10473000DBB2C0F307400344FF2B28BFFF23002058
:104740008DF80630019BDAB262F30700C3F307224B
:1047500062F30F20C3F3074363F3174004B010BDA7
:10476000024B1A7810431870704700BF24140020C1
:10477000012310B5044C0822182104482370FFF7C8
:10478000C1FB0023237010BD2414002090220020C0
:10479000082208B518210348FFF76CFB0022024BE2
:1047A0001A7008BD902200202414002084B004B0A8
:1047B000FFF71CBF2DE9F74FDFF8D0A000EB001882
:1047C0000AEB08035B5C0746FF2B0E462BD0002547
:1047D0002F4A90444FF0000B05EB051403F130090C
:1047E0000AEB04010AEB4909144411F801EBBEF18C
:1047F000FF0F0ED0E8B2874218D15FFA8BF08642E5
:1048000014D118F806002030FF2828BFFF2008F830
:1048100006000BF1010BBBF1110F04F10104E4D10F
:104820000135062DD6D103B0BDE8F08F0EF1300E64
:104830000AEB4E0E9EF806C099F806009EF807E0B7
:10484000A0EB0C0099F807C00191ACEB0E0C1FFA1D
:104850008CFC0CFB0CFC00FB00C080B20093FFF74B
:10486000CAFE2828009B0199094AD2D8C0F1280025
:1048700080B2102828BF102094F800C0C0B2604455
:10488000FF2828BFFF202070C3E700BF000C0020D6
:1048900054140020FFF77CBF10B5084C0D232046B0
:1048A000032200F8013B064904F0AFFB4FF67F738B
:1048B000A380BDE81040FFF76BBF00BF902200202F
:1048C000289000080020704770B504460E46154633
:1048D000FFF7F8FF054B04EB041423449B5DFF2B0B
:1048E0001EBF2B540130C0B270BD00BF000C0020B1
:1048F000014BDB68184700BF8C92000810B4024CD3
:104900006468A44610BC60478C9200082DE9F74FFC
:104910000478064604EB4404C4EBC404E4B204F196
:1049200015085FFA88F8B8F1650FC2460F4628BF30
:104930004FF0650ADFF87C901F4A99F8043015881B
:104940009B0803FB0555DFF874B0C5F30725E1B2FA
:104950008A4507D8B8F1640F8CBF0020012003B04E
:10496000BDE8F08F1BF8042073781A4220D099F824
:10497000022099F8013099F8030043EA022343EA40
:1049800000402A46B847C0F307238DF80400C0F35F
:1049900007408DF805308DF806000198FFF706FFF7
:1049A000C0F30743C2B2C0F307212046FFF7A6FFBA
:1049B0000134CCE79022002098220020300D002006
:1049C0000149FFF7A3BF00BF454600080149FFF7B3
:1049D0009DBF00BF6D4600082DE9F04F0C78824660
:1049E00004EB4404C4EBC404E4B204F11506F6B2CB
:1049F000652E334628BF65238B468BB00393414B0E
:104A000004921B780293404B03EB440703F5987321
:104A10000593039AE3B29A4206D8642E8CBF002015
:104A200001200BB0BDE8F08F059B1A5D9BF80130AB
:104A30001A421FD0D04600250322344908A804F0AA
:104A4000E4FA304B0AEB0309029A5FFA88F39A42C0
:104A500013D82F4BDB786B431B128DF8223008984C
:104A6000FFF7A4FEC0F30743C2B2C0F307212046FC
:104A7000FFF744FF01340237CBE719F8013F97F8FD
:104A8000661097F86720C91A99F8083089B2D21AC7
:104A900092B202FB02F001FB010080B20792069184
:104AA000FFF7A9FD1A4B08F10C0E93F804C0154B43
:104AB0000CF1010CBCF1FF0F28BF4FF0FF0C03EB12
:104AC0004E0E9EF801309EF802E0079A43EA0E234C
:104AD00003FB0CFC0699CCF30F238DF822500093B6
:104AE000049D034612B2089809B2A847C0F30723F1
:104AF0008DF820008DF82130C0F3074508F101083A
:104B0000A2E700BF9C220020000C00209122002080
:104B100090220020044B01461B78044A013B23EA03
:104B2000E373D8B2FFF758BF9C220020A5460008C7
:104B3000044B01461B78044A013B23EAE373D8B2D5
:104B4000FFF74ABF9C220020ED4600082DE9F34103
:104B500004781E4A04EB4404C4EBC40453789178EF
:104B6000E4B2054604F11506D07843EA0123F6B213
:104B7000652E43EA0040374628BF6527FFF716FE3B
:104B8000C0F307238DF80530DFF84480C0F30743F6
:104B90008DF804008DF80630E3B29F4206D8642EEB
:104BA0008CBF0020012002B0BDE8F08118F804207D
:104BB0006B781A4208D020469DF806309DF80420F4
:104BC0009DF80510FFF79AFE0134E5E790220020DA
:104BD000300D0020014B9B68184700BF8C920008E5
:104BE0002DE9F04F047885B004EB4404C4EBC40411
:104BF000E4B204F115095FFA89F94B46652B28BF29
:104C000065230193837807464BB100221146104675
:104C1000FFF7E0FF662200213C4804F0EEF93B7804
:104C200093B30026B0463A4B06EB030B374B06EB2B
:104C3000030A112300931BF8013BA3420DD3019AF1
:104C40009A420AD9324A134493F830217B781A42A7
:104C500029D108F101085FFA88F8009B0AF1010ADE
:104C6000013B13F0FF030093E5D1552E04D0B8F1BA
:104C7000140F06F11106D6D9B9F1640F8CBF0020CC
:104C8000012005B0BDE8F08F224D288801F099FB86
:104C900018288CBF012200221F4B1A70C1D901F0C5
:104CA0008BFB2880BDE79AF800501C4AA5F15503FC
:104CB00023EAE373C3F1AA038DF808309378D2781E
:104CC0008DF8093005F1AA03FF2B28BFFF2303EB62
:104CD00043030233DBB253431B128DF80A300298B0
:104CE000FFF764FDC0F30743C2B2C0F307211BF80E
:104CF000010CFFF703FE084B1B78002BA9D0013DE8
:104D000025EAE5758AF80050A3E700BF5414002097
:104D1000000C0020BC140020BA14002090220020B7
:104D20002DE9F04F85B0074688461546FEF758FC3A
:104D3000814600284DD0002D4ED04146384602AA6B
:104D4000FFF7C2FD0446334E33782344082B22DD9F
:104D5000C4F1080A611C52463144701C04F055F934
:104D600004F109015246314406F1090004F04DF9FD
:104D700006EB44014FEA4A02193106F1190004F02A
:104D800044F904F111015246314406F1110004F0D6
:104D90003CF986F800A000221146964602AB96F830
:104DA00000B0DFF870C00193D0B200EB0B03844277
:104DB000DBB213D811B1174B5C441C704DB1164BCC
:104DC0001B7803F0FC03102B03D141463846FFF754
:104DD000F1FC05B0BDE8F08F2C46B4E701990F4E09
:104DE00011F801AB0CEB030001910AF1300106EB65
:104DF00041018E790C33C9790CEB43034172467043
:104E0000494680F811A083F801E083F802E00132FE
:104E1000CAE700BF2514002090220020000C0020CB
:104E20000120704708B5FFF7FBFF08BD0120704760
:104E300008B5FFF7FBFF08BD08B5017801EB41019C
:104E4000C1EBC101C9B2A1F11500652928BF6521D7
:104E5000C0B2FFF7EDFF08BD2DE9F0415C4C5D4E9F
:104E6000206801F0B5FA054601F06EFA20600024D2
:104E700096F800E0A4467146C5F57F47FF37E3B2D8
:104E80009E4511D8BCF1000F00D03170524A534EEC
:104E9000137813F0030418BF9C083378032B7CD8D5
:104EA000DFE803F01A277D8804F10C0206EB4202CA
:104EB000537892F80280013443EA08239F4229BFC5
:104EC0005B1901F1FF315370C3F307233ABF4FF071
:104ED000010CC9B29370D2E70022414B3D491A70D0
:104EE000404B29221860404804F08FF801233370AA
:104EF00053E03E4B1B78A3421BD13D491378097800
:104F000003F003035B1A18BF0123354DAB705379CF
:104F10006A789A4205D00022114610466B70FFF75E
:104F200059FE062C0ED8DFE804F0061E22262A2E93
:104F300032000123E9E7AB7823B100221146104685
:104F4000FFF748FE00202B7801332B7018BB02239B
:104F50003370AB78FBB95CB3FFF764FFBDE8F04199
:104F60001F48FFF769BF1E48FFF7F0FDEBE71C483D
:104F7000FFF726FDE7E71A48FFF728FDE3E71848A3
:104F8000FFF72EFEDFE71648FFF7C4FDDBE7144806
:104F9000FFF7CEFDD7E7002CDED1BDE8F081134B43
:104FA0001C701378124AC3F301031370FFF7A0FCBF
:104FB00003239CE70F4B1B780BB1FFF7E9FB094B71
:104FC000186801F005FA0F28E7D900238FE700BF22
:104FD000501400202514002090220020AC0D002049
:104FE000AD0D0020982200209C220020B00D002052
:104FF000B10D00202414002010B50024114B1B68B3
:10500000984711481022FF2100F8194B03F0F5FFD3
:105010000E481022FF2100F8194B03F0EEFFFEF7B7
:105020001BFA18B9FEF792FAFFF736FCFFF7A0FB60
:10503000074B1B78032B03D8BDE81040FFF72CBCAF
:1050400010BD00BF8C9200089C2200202514002077
:105050009022002070470000044A137883F0010377
:1050600013700022024B1A70FFF77ABB90220020C7
:10507000AC0D00200020FFF7EFBF0120FFF7ECBFD1
:10508000064A137813F0030304BF05490B7001218E
:10509000137861F301031370704700BF9022002062
:1050A000AC0D0020054B1A7892071EBF0021044A60
:1050B00011701A7822F003021A70704790220020B3
:1050C000AC0D0020024B187800F00300704700BFC1
:1050D000902200200C4A034608461178890711D017
:1050E00063B1062B0CD803F03F03117863F38701FB
:1050F00011700022054B1A70FFF732BB0123F4E751
:105100000623F2E7704700BF90220020AC0D00207C
:105110000021FFF7DFBF0121FFF7DCBF014B18784B
:105120008008704790220020054B01461B789B08A1
:105130000133072B34BF18460120FFF7CBBF00BF58
:10514000902200200120FFF7EFBF0000064B014630
:105150001B78C3F38503013B13F0FF0314BF18460C
:105160000620FFF7B7BF00BF902200200120FFF705
:10517000EDBF000030B4074C0546184623789B0766
:1051800005D06570A170E27030BCFFF7E9BA30BCA1
:10519000704700BF902200200023FFF7EBBF000004
:1051A000014B5878704700BF90220020014B98783F
:1051B000704700BF90220020014BD878704700BF95
:1051C00090220020034903464878CA78083089783D
:1051D000FFF7D0BF902200200120FFF7F3BF0000AF
:1051E000054910B44C780346083CCA78A0B28978C7
:1051F00010BCFFF7BFBF00BF902200200120FFF7C7
:10520000EFBF000010B4064C0346A178E2781031DD
:10521000FF2928BFFF216078C9B210BCFFF7AABFE1
:10522000902200200120FFF7EDBF000010B4064CD3
:105230000346A178E278103921EAE1716078C9B2B9
:1052400010BCFFF797BF00BF902200200120FFF79E
:10525000EDBF000010B4064C0346E278A17810328E
:10526000FF2A28BFFF226078D2B210BCFFF782BFAE
:10527000902200200120FFF7EDBF000010B4064C83
:105280000346E278A178103A22EAE2726078D2B25C
:1052900010BCFFF76FBF00BF902200200120FFF776
:1052A000EDBF0000024B18710020FFF759BA00BF94
:1052B00090220020014B1879704700BF90220020F7
:1052C000044A13791033FF2B28BFFF231371FFF714
:1052D00047BA00BF902200200120FFF7F1BF000075
:1052E000034A1379103B23EAE3731371FFF738BACB
:1052F000902200200120FFF7F3BF704730B5044D26
:1053000000EB40002C1861702A54A37030BD00BF20
:10531000C522002070B5134605460E4600242046DF
:10532000324629460134FFF7E9FF652CF7D170BDFD
:105330006521014800F0C8B8C522002000B110471F
:105340000847000038B54D790446002D3FD1FDF7E0
:105350006BFFA4F5F043203B00F02200142B36D85D
:10536000DFE803F00B0F14171A1D202326292C2F1A
:105370000D330D0D0D0D0D0D0D00FFF77EFE2846B2
:1053800038BD144A1449FFF7D9FFF8E7124A11490A
:10539000F9E7124A1249F6E7114A1049F3E7114AB0
:1053A0001149F0E7104A0F49EDE7104A1049EAE7C2
:1053B0000F4A0E49E7E70F4A0F49E4E70E4A0D4945
:1053C000E1E70120FFF7A7FED9E70320FAE701256F
:1053D000D5E700BF6D51000845510008FD51000898
:1053E000D95100084D520008255200089D5200086E
:1053F00075520008F5520008D952000838B51A4D08
:1054000040F678120C21284603F0F7FDE022002137
:1054100005F6781003F0F1FD10224FF48071134867
:1054200003F050F80023124C1A460A21062002F01D
:10543000A5FF104BE2695B6E3C329A6043F2B012FA
:10544000DD601A6040F658225A601A68204642F021
:1054500001021A60084902F059FA2046BDE83840B6
:105460000022022102F064BABF140020000C0140A7
:1054700098240020749700089C92000830B51825E5
:10548000104C05FB0040002441FA04F515F0010F13
:105490000CBF0C251C25C57142FA04F515F0010F4F
:1054A0000CBF0C251C2500F8015D43FA04F515F02E
:1054B000010F0CBF0C251C250134082C0574E3D109
:1054C00030BD00BFC714002070B50D4D04462B78C9
:1054D0000E461BB9FFF792FF01232B700025B54242
:1054E000A8B204F1030400D170BD14F8013C14F813
:1054F000032C14F8021CFFF7C1FF0135EFE700BFD2
:10550000BE140020252008B5FEF766FC232801D034
:10551000002008BD2620FEF75FFC0728F8D12720D1
:10552000FEF75AFCA0F1290358425841F1E710B5A3
:10553000041E0CBFFF2123212520FEF7B5FC002C03
:105540000CBFFF2107212620FEF7AEFC002C08BF70
:10555000FF21BDE8104018BF29212720FEF7A4BC79
:10556000704708B52820FEF737FC08BD704710B516
:105570000446FFF7FBFFE1B22820BDE81040FEF72C
:1055800093BC08B50020FFF7D2FF0020FFF7EFFF24
:1055900000F030FB00F0BBFBBDE808400120FFF746
:1055A000C6BF08B5FFF7DCFFFFF7DBFFFFF7DEFF45
:1055B000FFF7A8FF18B9BDE80840FFF7E2BF08BD34
:1055C000FFF758BD08B50346487940B1A3F5EE4250
:1055D0007F2A03D8D8B200F0A6FB002008BD012026
:1055E000FCE7FF23037070470020704710B5037875
:1055F0000446013B032B06D8DFE803F002060D103A
:10560000FFF7DAFD607010BDFFF75CFD0028F9D0F0
:10561000FFF784FDF6E7FFF74DFEF3E7FFF7C0FD68
:105620006070FFF7C3FDA070EDE738B5037804465E
:10563000013B032B2CD8DFE803F002121F24FFF7F5
:10564000AFFD0546FFF7B2FD01466278C2EB0222CC
:10565000C2F307222846BDE83840FFF79DBD4378D6
:105660001BB9BDE83840FFF71DBDFFF709FD6078A5
:10567000BDE83840FFF74CBD4078BDE83840FFF743
:1056800011BE84784578FFF797FD21460246E1E791
:1056900038BD034610F8022B082A05D0092A05D088
:1056A000072A05D1FFF7C1BFFFF7A0BFFFF7F2B888
:1056B000FF221A70704708B54378032B03D1BDE869
:1056C0000840FFF7E6BFFFF78CFF08BDF8B50446BA
:1056D0000D46FFF789FF002840F0B8802378013B92
:1056E000122B48D8DFE803F00A14425C626E717135
:1056F000714747767A808B96999CA7000023637048
:105700000C23A37029462046BDE8F84001F054B9A7
:105710006378013B032B2ED8DFE803F0020C0F2245
:1057200000F012FE030EA370030CE370030A237152
:105730006071E7E7FFF715FFF4E7A778E61C052F90
:1057400006F10306DEDCF8B2FEF702FA030C06F8F7
:10575000033C030A06F8023C06F8010C0137EEE7A9
:105760000023A370E37023716371CBE76378022B8E
:1057700004D0052B10D0FF232370C3E7E378A07873
:1057800040EA0320237940EA0340637940EA03605A
:1057900000BAFFF7ECFEB5E7A078FFF711FFB1E71D
:1057A000E278A178607800F0FAF9BFE762792379AE
:1057B000A17843EA02235BBAE27860789BB200F0FA
:1057C00004FA9FE700F016FA9CE729462046FFF707
:1057D00072FF97E700F06DFA607093E700F06BFAE4
:1057E000030A6370A0708DE76078A378E17840EADF
:1057F000032040BA221D80B200F05FFA82E7607891
:10580000A378E17840EA032040BA221D80B200F07C
:105810006AFA77E700F07BFA74E700F0B5F9DBE7A6
:105820006078A378E17840EA032040BA221D80B274
:1058300000F008FA66E76078A378E17840EA032090
:1058400040BA221D80B200F013FA5BE7F8BD2DE9E3
:10585000F0414FF0120C4618054619461046002735
:10586000B54201D3BDE8F08115F8013B83EA00029F
:10587000A2FB0C830CFB01334801540114EB080418
:1058800040EAD26043EB00034FEAC218A4184FEA83
:10589000C11041EB03034FEA022E40EA526014EBC1
:1058A00008044FEA012143EB000341EA126114EBC3
:1058B0000E0443EB01030EEB03013819D0E700009F
:1058C00038B505464879002800F0DC80A5F5E045AC
:1058D000ABB2222B00F2BB80FDF7D2FD6A4C013D3A
:1058E0002080212D12D8DFE805F04DBD551B1F5932
:1058F000235D692FB5336D3771973B759F417B836E
:1059000027612B65477F8EA9B31651C5237843F0D5
:105910000103237095E0637843F00803637090E01F
:10592000237843F00203F4E7237843F00403F0E71D
:10593000237843F00803ECE7637843F00103EDE7D5
:10594000637843F00203E9E7237843F01003E0E7CC
:10595000237843F02003DCE7237843F04003D8E7C3
:10596000FDF7A0F8237843F08003D2E7237823F0F3
:105970000C0343F00C03CCE7637823F0030343F0FC
:105980000303CBE7237823F00103C2E7637823F016
:105990000803C3E7237823F00203BAE7237823F050
:1059A0000403B6E7237823F00803B2E7637823F013
:1059B0000103B3E7637823F00203AFE7237823F012
:1059C0001003A6E7237823F02003A2E7237823F02F
:1059D00040039EE7FDF766F8237823F0800398E7FD
:1059E000237823F00C0394E7637823F0030395E70F
:1059F0002378C3F3800282F00102D2B262F3820301
:105A000062F3C30385E76378DA4302F0010262F3CD
:105A1000000362F3410381E72378C3F3801282F02D
:105A2000010262F3861374E7FDF73CF82378C3F3B1
:105A3000C01282F0010262F3C7136AE70120FDF78A
:105A400087FD2088FDF71FFDFDF72CF8002038BDED
:105A50000020F4E72378C3F3001282F0010262F31E
:105A6000041356E72378C3F3000282F0010262F3C5
:105A700000034EE76378C3F3C00282F0010262F3D1
:105A8000C3034BE70120E2E75C220020F8B5174B87
:105A90001749C2081F5C174B8D5C17499B5C00F0CF
:105AA00007008E5C03410541064113F0010405F037
:105AB000010506F0010602D0E120FCF749FD15B111
:105AC000E620FCF745FD3846FCF7C2FD15B1E6209F
:105AD000FCF780FD14B1E120FCF77CFD26B1BDE8A8
:105AE000F8402C20FCF7B4BDF8BD00BFD4930008EB
:105AF00064940008749400085494000870B5044637
:105B00000E46207800283CD0012837D16378013B2D
:105B1000032B03D8DFE803F00D13181D01343546BD
:105B20000134002DEDD06420013D01F064FBEDB2A5
:105B3000F7E7A078A51CFCF78BFD2C46EFE7A078D3
:105B4000A51CFCF705FDF8E7A078A51CFCF742FDB5
:105B5000F3E700250A2014F8023F0A49CA5C5207FD
:105B600006D4002DDBD0642001F045FB013DF8E7B1
:105B7000303B00FB053514F8013FEFE7FFF786FFE8
:105B8000CDE770BD599800080420704722235200C9
:105B900003FB0122CC2303FB00202930704703289C
:105BA00038B510D805290ED8102A0CD8FFF7EEFF0B
:105BB0000546FEF711F90402681CFEF70DF9A4B2C0
:105BC000204380B238BD0020FCE7032870B51C4696
:105BD0000FD805290DD8102A0BD8FFF7D7FF054697
:105BE000210AFEF761F9E1B2681CBDE87040FEF7DA
:105BF0005BB970BD2DE9F84300240025E7B216E03B
:105C0000FCF74EFBA0425FFA86F914DD4A46414696
:105C10003846FCF747FB03464A46414638460136BC
:105C2000FFF7D3FF112EEBD10135062D05D000264D
:105C30005FFA85F8E4E70123EEE70134042CDCD1B8
:105C4000BDE8F88370B5144600F129055618B44232
:105C500000D170BDA5F12903B3F54C7F06DA2846C3
:105C6000FEF7BAF804F8010B0135F0E70020F9E778
:105C700070B5144600F129055618B44200D170BD24
:105C8000A5F12903B3F54C7F03DA28462178FEF706
:105C90000BF901340135F0E7032810B406D80529C3
:105CA00004D8102A02D810BCFFF779BF002010BC1E
:105CB000704710207047A720704770B5144600F257
:105CC00059355618B44200D170BD6FF45673EB18B5
:105CD000A62B06DC2846FEF77FF804F8010B0135F9
:105CE000F0E70020F9E770B5144600F25935561870
:105CF000B44200D170BD6FF45673EB18A62B03DCD1
:105D000028462178FEF7D0F801340135F0E710B5C8
:105D100040F25934204600210134FEF7C5F8B4F5AD
:105D2000806FF7D110BD0F28F7B5044651D840F267
:105D3000FF30FEF751F800284BD140F259352CBB0B
:105D4000CDE900442846FEF747F86F1C8DF80000A7
:105D50008DF80140E8B3012812D13846FEF73CF82F
:105D6000AE1C8DF80100A0B3431E022B19D830469B
:105D7000FEF732F8EF1C8DF8020050B38DF80340A7
:105D800000216846FFF7BAFE3D46DBE7B5F5806FB8
:105D90001FD02846FEF720F808B9013CE4B20135CF
:105DA000CDE7042810D102253046FEF715F801365C
:105DB0000DF8050068B17C2808D105F108030DEB4A
:105DC0000305002305F8073C3746D9E70135072DC1
:105DD000EAD103B0F0BD000047F61643984210B573
:105DE0000C461BD1FDF720FA62790D4B72B100F021
:105DF000AA00002813BF01220022292035201A7092
:105E0000FDF7E4F9FDF784FA002010BD1B78002BA4
:105E10000CBF29203520FDF7E1F9F3E70120F4E775
:105E2000181F0020F8B5144642791D469DF81870D9
:105E3000284B92B11C7000F0BFFA274B188004F178
:105E40002003DBB2072B44D8012004F00704A04054
:105E5000C0B2BDE8F840FCF703BC1E78A6422ED1C4
:105E60001D4B188800F0ADFAC72828D8AE4205F1BE
:105E7000200415D006F12003DBB2072B06D8012041
:105E800006F00706B040C0B2FCF7F3FBE3B2072B05
:105E900006D8012005F007039840C0B2FCF7E0FBEC
:105EA0003846E4B2FCF7D4FB072C12D8012005F0E9
:105EB0000705A840C0B2BDE8F840FCF7DABB04F122
:105EC0002003DBB2072B04D8012004F00704A04014
:105ED000F0E7F8BD1C1F00201A1F00200346A3F5A1
:105EE000F843183B07B50846062B3BD8DFE803F01C
:105EF000171E0410252C330026230093E12347F6B8
:105F00001A411A46FFF78EFF002003B05DF804FB2C
:105F100027230093E52347F61B411A46F2E7262381
:105F2000E022009347F61841E123EBE72723E42220
:105F3000009347F61941E523E4E72623E222009384
:105F400047F61C41E123DDE72723E622009347F6CD
:105F50001D41E523D6E72823E522009347F61E419D
:105F60000123CFE74B7913B10022024B1A700120B5
:105F7000CBE700BF1C1F002038B547F67743984297
:105F800005D047F6784398421BD0012038BD4B79A5
:105F900093B100F01FF8FCF707FE00F01BF8044671
:105FA00000F01EF8054600F021F82946024620467A
:105FB000FCF7F4FE0020E9E700F00CF8FCF7FEFD2A
:105FC000EBE74B7913B100F00BF8E4E700F008F8C9
:105FD000F4E70000014B1878704700BFB40D0020B3
:105FE000014B1878704700BFB30D0020014B1878A3
:105FF000704700BFB20D0020014B1860704700BF12
:10600000241F0020024B186808B103681847704726
:10601000241F0020084B1B686BB1084A127842B15C
:10602000074A92F90020002ABFBF02784270062278
:1060300002705B6818477047241F00200C0F002077
:106040005C2200200B4B07B51A8882420ED01880C4
:10605000094B1B6853B103228DF80500000A8DF827
:106060000600DB688DF8042001A8984703B05DF8AE
:1060700004FB00BF201F0020241F00200B4B07B58E
:106080001A8882420FD01880094B1B685BB104222A
:106090008DF80500000A8DF80600DB688DF80420F5
:1060A0000DEB0200984703B05DF804FB1E1F0020B3
:1060B000241F00200C4B821C1B789BB10B4B93F9C7
:1060C0000030002BB4BF1E2306230020013BDBB2AF
:1060D00012F8011B09B10130C0B2013BDBB2FF2B4A
:1060E000F6D170470623F0E70C0F00205C22002059
:1060F000F1B1114B1B789BB1104B93F90030002B81
:106100000EDAEF294FEAD10212D801231044827827
:1061100001F007018B40134214BF0120002070479B
:10612000431C073013F8012F8A4203D08342F9D170
:1061300000207047012070470C0F00205C220020D7
:1061400000224FF0FF3330B5441C14F8015F8D423C
:106150000BD0B3F1FF3F01D105B953B20132062A8A
:10616000F3D15A1C01D01844817030BD002210B503
:10617000431C073013F8014F8C4208BF1A7083424A
:10618000F8D110BDEF294FEAD10307D818440123F5
:10619000827801F007018B40134383707047EF2929
:1061A0004FEAD10308D801221844837801F007018F
:1061B0008A4023EA020383707047000010B4094C40
:1061C000034624780A463CB1074C94F90040002C61
:1061D00002DA10BCFFF7D6BF1146184610BCFFF715
:1061E000AFBF00BF0C0F00205C22002010B4094C90
:1061F000034624780A463CB1074C94F90040002C31
:1062000002DA10BCFFF7CBBF1146184610BCFFF7EF
:10621000ADBF00BF0C0F00205C220020074B0230F6
:106220001B7843B1064B93F90030002B03DA1E2292
:10623000002102F0E2BE0622FAE700BF0C0F0020A8
:106240005C220020704708B5FFF7FCFF08BD000086
:1062500008B50130024BC0B21870FFF7F4FF08BD5B
:10626000281F0020032008B5024B1870FFF7EBFF32
:1062700008BD00BF281F0020FFF7EABF012008B5B6
:10628000024B1870FFF7DFFF08BD00BF281F00207A
:10629000FFF7F4BF70477047704708B5FFF7FCFF82
:1062A00008BD704708B5FFF7FCFF08BD10B5FFF744
:1062B000F1FF0024FDF70AFDFFF7EDFFE0B2FDF767
:1062C00047FC18B90134062CF8D110BD0120FCE7B9
:1062D00008B501F0D5F8BDE8084000F0EBBD08B501
:1062E000FCF7BEF8BDE8084040F2A46000F083BFB0
:1062F00008B5FCF7AFFFFCF7C3FFFCF777FF002002
:10630000FFF7A0FE0020FFF7B9FEBDE80840FCF74C
:10631000B3B80000302383F31188064BDA69064BCB
:106320001A600023054A1360054A136083F311883D
:10633000704700BF18240020341F0020301F0020A9
:106340002C1F0020FFF7E6BF302370B583F31188C0
:10635000124B13481349DC6903680A68E41AA24225
:10636000114A0AD9A3F58333E03B036010680F4B51
:1063700004F583340344E03413600C601668002194
:1063800081F311884FF47A7509480023E4FB050175
:10639000084AFBF76BFF304470BD00BF1824002093
:1063A000341F0020301F00202C1F002088598F022E
:1063B0009F860100A086010008B5FFF7C5FF80B2E7
:1063C00008BD10B50446FFF7BFFF001B80B210BD2B
:1063D00010B50446FFF7B8FF001B10BDBFF34F8F89
:1063E0000549064BCA6802F4E0621343CB60BFF371
:1063F0004F8F00BFFDE700BF00ED00E00400FA058D
:1064000008B5FFF7EBFF000044F24D2208B5024B40
:106410009A62FFF7E3FF00BF006C00407047000086
:1064200008B5302383F31188034800F079FC00237A
:1064300083F3118808BD00BF8C0E002070B50A4C94
:106440000E46154619460022234643F8042FB0F89D
:106450007A2045EA062000F029FB206060680028C9
:1064600018BF204670BD00BF381F002090F87A107A
:10647000074A0229137807D1012B01D0062B05D139
:106480005278044B1A707047024A1370704700BF6D
:10649000401F0020E420002070B5044606480D4649
:1064A00003680BB100F04AFD2B462146BDE8704061
:1064B000024A014800F03ABDCC200020C164000827
:1064C00038B50C46302383F311880B78042B03D0A6
:1064D000002383F3118838BD124B1B78DB09F7D1F9
:1064E000114D2B78002BF3D0104B1B78002BEFD0E5
:1064F0000B899B0705D40823012120460C4A01F093
:10650000D3FA28780B4B4FF47A72A0FB03030021D7
:10651000002300F2E730FBF7A9FE21468000FFF7D9
:10652000BBFFD5E75C220020E62000200C0F0020F6
:10653000AC200020A086010038B590F874300446E5
:1065400003F07F02212A69D113F0800F90F8753093
:1065500024D0022B1ED0032B14D0012B5ED190F837
:10656000783033B9404A826608220120E266236708
:106570006AE03E4B90F8762083661A7090F87A2095
:106580000023F2E7B0F87830002B47D1384A826612
:106590000122EAE7374B01228366F1E70A2B34D068
:1065A0000B2B0BD0092B39D190F8783013F0FD0F5D
:1065B00034D1314B02228366304BD6E7B0F87830C5
:1065C00003BB90F876502A4B002D14BF0122002205
:1065D0001A7017D1274B1A78A2B1302282F3118892
:1065E0001878274B4FF47A72A0FB03030021002395
:1065F00000F2E730FBF73AFE21468000FFF74CFF40
:1066000085F311880022A266BAE71E4990F8772028
:106610000978184BCD091A70F4D1DDE740F2816397
:10662000B4F874209A4214D194F87920616894F8EF
:1066300078304D6843EA0223204694F8762094F897
:106640007710A84708B9002038BD43680268A366E0
:1066500096E70D4B93F8B630002BF4D02046BDE8FA
:10666000384000F03DBB00BFAC2000208C20002053
:106670000C0F0020E6200020401F00206D64000861
:10668000A08601005C220020B80D002010B5064A4B
:10669000064C117824784B1C03F00F039C421EBF5C
:1066A000034C1370605410BD042400200524002006
:1066B000F423002038B504460846052944D8DFE80D
:1066C00001F0384303383844302383F31188244DD4
:1066D00001212046234A01F097F904212046224A4D
:1066E00001F092F9204695F8B41005F1440201F04A
:1066F0008BF995F8B510204605F1680201F084F990
:1067000095F8B61021B1204605F18C0201F07CF914
:10671000164800F0CEFA002383F31188144B1B783F
:1067200013B10520FFF7B2FF0220BDE83840FFF7A4
:10673000ADBFFFF7ABFF302383F311880B4800F0A8
:1067400095FA002383F3118838BD302383F3118831
:10675000064800F0A3FA002383F311880520E4E73C
:10676000B80D0020B8940008949400088C0E002006
:10677000421F0020102208B50021044802F03DFC11
:106780000023034A1370034A137008BDF42300204A
:106790000424002005240020F8B5284D284C0022B0
:1067A0002E782378B3422FD102B12370F8BD237025
:1067B000244B1870244B93F87F10081E18BF01203B
:1067C000FFF750FDEBE7002223701E4B1A70FFF716
:1067D0008FFD1D4B93F87F10081E18BF0120FFF797
:1067E0004BFDDCE72370184B93F87F10081E18BF91
:1067F0000120FFF72DFDD2E7002123700846F8E7BE
:106800002370FFF73BFDCAE7194601220F48013309
:10681000415C03F00F0310460529C3D801A757F8C0
:1068200021F000BF01680008A5670008E5670008BF
:10683000F9670008AF670008C76700080424002054
:1068400005240020421F0020B8240020F42300204B
:1068500070B51B4C054604F10802A26504F11C0248
:10686000C4F8802004F13002C4F8A02004F1B0067E
:10687000D4343146204600F0B7F931464FF4805603
:106880002046104C00F0DAF906224FF480512046E1
:1068900001F018FE2846666101F08DF841F288305B
:1068A00000F0A9FC0849284601F071F8022231469F
:1068B000204601F007FE0022044B1A6070BD00BFA5
:1068C000B80D00200008014084940008CC2000206E
:1068D00070B504464FF480560A4D06224FF480519D
:1068E000284601F0EFFD20466E6101F064F8204675
:1068F000054901F04CF831462846BDE870400222B7
:1069000001F0E0BD0008014084940008014B1878B4
:10691000704700BFE420002070B5302304460D46C8
:10692000164683F311880F480378042B03D0002305
:1069300083F3118870BD01230289A34013420AD05A
:1069400000EB8400C3684FF47A7158690C3000F092
:106950005FFC0130EBD033462A462146014801F066
:10696000A3F8E4E7B824002010B50D4B04461B78CB
:1069700053B9014608220120FFF7CEFF202221460D
:10698000084802F042FB10BD074B014693F9003066
:10699000002BB5BF2022082204200120ECE700BF15
:1069A0000C0F0020AC2000205C2200207047014624
:1069B00003220420FFF7B0BF202903460A4610B483
:1069C00007D1054850F8D41F4C681946234610BC1F
:1069D000184710BC704700BFB80D002070B50A4CB6
:1069E00088B004F1D405D4F8D43020221E6A694658
:1069F00000232846B04720B1C1B26846FEF766FEC4
:106A0000F1E708B070BD00BFB80D002070477047B7
:106A1000704708B5FFF7FAFF02F078F9FFF7F7FFC4
:106A200008BD08B502F07AF9FFF7F2FF08BDFFF7DD
:106A30002FBC000008B5FFF79DFE0648FFF708FFD2
:106A4000054B064A41F288301A60BDE8084000F064
:106A5000D2BB00BFB8240020E8200020100F002087
:106A6000014B1868FFF7C8BAE820002010B50D4C9C
:106A7000FFF792FE2378052B13D12378052B03D043
:106A8000BDE81040FCF744BCFFF729FCFFF70EFC03
:106A90000028F2D0034801F019F80248FFF718FF68
:106AA000EBE710BDB8240020FFF798BF020A032AC5
:106AB0000FD007D8012A23D0022A07D15B20124A1F
:106AC0001A607047212A0DD0222A12D000200246D7
:106AD000F6E7C0B20228F9D80C4A0D4952F8202036
:106AE000405CEDE70229F1D80A4A092052F821203A
:106AF000E6E70229EAD8084A084852F82120EFE7D9
:106B00001220074ADCE700BF26950008FC94000825
:106B1000F8940008EC940008E0940008DC94000865
:106B20008195000813B5446BE36F1A681178042946
:106B300015D1217A022912D11979012312898B40AA
:106B400013420CD101A904F1440000F097FD024664
:106B500028B1E06F019B0179006800F0A5FF02B049
:106B600010BD0C3000F026BD4FF0FF330C3000F0AC
:106B700021BD443000F0EBBD4FF0FF33443000F056
:106B8000E6BD0C3000F0F9BC4FF0FF310C3000F0E6
:106B9000F4BC443000F0BBBD4FF0FF32443000F095
:106BA000B6BD10B5C36F04461A681178042916D112
:106BB000017A022913D15979012352898B4013425A
:106BC0000DD10C3000F094FC024640B1E06FA36A96
:106BD0004179043B0068BDE8104000F053BF10BD90
:106BE000406BFFF7DEBF00007FB503460126044679
:106BF0000D460F4A43F8042B43600E4B0672029079
:106C00000193CB680C3000934B690A6A314600F05F
:106C10004DFC094B02940193AB68314600932B69FC
:106C2000EA6904F1440000F006FD04B070BD00BF45
:106C300064960008E16B0008256B000830220B68A1
:106C400082F311880A7903EB820290624A79113249
:106C500043F822008A7912B103EB8203986202237F
:106C6000C1670372002383F31188704738B5044667
:106C700001250221043000F09FFB04F10C006FF0AD
:106C80000101257500F0F7FA84F84C5004F1440036
:106C90006FF00101BDE8384000F0EDBA10B50121F8
:106CA0000446043000F088FB0023237584F84C3040
:106CB00010BD38B5044600250C3000F00EFC04F180
:106CC0004400257500F0CEFC201D84F84C500121B5
:106CD00000F072FB2046BDE83840FFF762BF0000BD
:106CE00090F87420034602F06002202A14D190F834
:106CF00075200020212A02D81F2A03D87047222A93
:106D000007D07047054A9A660722DA66186701209D
:106D100070479866D866F9E700207047200F00207A
:106D200073B5C36F04461A681178042928D1017A13
:106D3000022925D11979012312898B4013EA020512
:106D40001ED100F14406304600F044FDC0B130468B
:106D500001A900F093FCE36F06461A7E4AB1019840
:106D60001A692946121A304402F047F9E36F1B6989
:106D70000193E06F32460179019B006800F094FEB8
:106D800002B070BD00EB81032DE9F3419E6A044619
:106D90000D46FEB1302383F311880821301D04EB2A
:106DA000850700F009FBFB6806F144085B691B6876
:106DB00013B1404600F070FC404601A900F05EFCB3
:106DC000024650B1019B2946204600F06DFE00238B
:106DD00083F3118802B0BDE8F081FB685A6912683C
:106DE000002AF4D01B8A013B1342F0D1F36F1B7EC3
:106DF000002BECD104F17402E5E7113110B550F825
:106E00002140C4B1302383F311880421601800F0BD
:106E1000D3FAE26F04F10C001368527903EB82039A
:106E2000DB689B69596800F06DFB2046FFF7B9FEEF
:106E3000002383F3118810BD70470000024B034A02
:106E40001A60034A5A607047082400204025002039
:106E50000050002070477047FEE7000070B508251D
:106E6000134C606823680146A268043B8A4219D823
:106E7000D31C1B1AC11E23F00303914288BF0023B9
:106E80001844E368C11EDA1C121A22F00302994268
:106E900088BF0022002102F0B0F8013D04F1100487
:106EA000DFD170BD53F8046F41F8046BDEE700BF1B
:106EB0008C96000838B501230025074C23706560C7
:106EC000FFF7BCFF0549064800F00CF902232370C8
:106ED00085F3118838BD00BF1024002010970008EA
:106EE0001824002000F03CB8034A516853685B1A2C
:106EF0009842FBD8704700BF001000E010B50A4C64
:106F000023699A6891420CD85A6881600360426094
:106F100010609A685860521A9A604FF0FF33A3616C
:106F200010BD1B68891AECE71824002003610023B8
:106F300010B410BCC2604361FFF7E0BF0368816812
:106F40009A680A449A60426813605A6000234FF0BE
:106F5000FF320360014B9A61704700BF1824002084
:106F600070B5124D2A46EB690133EB6152F8103FC0
:106F7000934206D030269A68013A9A602C69A36839
:106F800003B170BD226861680A605160236083F3B9
:106F900011882046E3682169984786F31188616962
:106FA0000029EBD02046FFF7A9FFE7E718240020CF
:106FB00000238268037503691B6899689142FBD2BC
:106FC0005A6803604260106058607047002382680E
:106FD000037503691B6899689142FBD85A6803607E
:106FE000426010605860704708B50846302383F34C
:106FF00011880A7D0023052A06D8DFE802F00B0578
:107000000503120E826913604FF0FF338361FFF7AF
:10701000CFFF002383F3118808BD82699368013391
:1070200093604268036813605A60EDE7FFF7C0BFE2
:10703000054BD96808751868026853601A60012208
:107040000275D860FBF7FCB81824002030B50C4B53
:107050000446DD684B1C87B00FD02B466846094AB2
:10706000FFF764FF2046FFF7E3FF009B13B168467C
:10707000FFF764FFA86907B030BDFFF7D9FFF9E754
:1070800018240020E96F0008044B1A68DB68906838
:107090009B68984294BF002001207047182400206C
:1070A000084B10B51C68D868226853601A6001222A
:1070B0002275DC60FFF78AFF01462046BDE81040DC
:1070C000FBF7BEB818240020044B1A68DB689268EE
:1070D0009B689A4201D9FFF7E3BF7047182400204C
:1070E000FEE7000070B5002504461A4B86B08562A5
:1070F00001630E46586000F07DF904F1100323612E
:1071000063614FF0FF33A361134BE561D9692B46EF
:107110000A462046C4E9082304F1340180230F4ABB
:1071200024606460A560E562E56500F01DF8012358
:107130000B4AE06003750092726868460192B2687B
:10714000CDE90223074BCDE9043500F03FF806B046
:1071500070BD00BF10240020182400201C970008D8
:1071600021970008E170000802228B604B62002327
:1071700008618A8208460B62CB6170478368C168E8
:10718000A3F14C0243F81C2C026943F84C2C4269D1
:107190000C4843F8482C0C4A43F8180C43F82C2CA4
:1071A000022203F8142C002243F8201C03F8132CAD
:1071B00043F8041C43F8082C43F80C2CA3F12800D6
:1071C000704700BF182400205122000808B5FFF7BF
:1071D000D5FFBDE80840FFF729BF0000024BDB6880
:1071E00098610F20FFF724BF18240020302383F379
:1071F0001188FFF7F3BF08B50146302383F31188E8
:107200000820FFF723FF002383F3118808BD000047
:10721000054BDB6821B1036098610320FFF716BFBF
:107220004FF0FF30704700BF18240020034600686D
:1072300020B100221A608161FFF7F8BE704700009C
:10724000064BDB6839B1426818605A6013604360CE
:107250000420FFF7FBBE4FF0FF30704718240020DA
:1072600003460068834205D002681A60536081615A
:10727000FFF7DCBE704738B504460D4620688442EF
:1072800000D138BD036823605C608561FFF7CEFEE6
:10729000F4E7034610B51B68984203D09C688A68DF
:1072A0009442F8D25A680B604A601160596010BD70
:1072B00000230060406083607047000038B581683B
:1072C000164B0446DD6891B92B6A8560C36028625D
:1072D00038BD8B600B7D7BB1062B14D10B684A68DF
:1072E000886913605A60FFF7D4FF8B699968AB68AF
:1072F0008A689A42EDD306E04A680B680846136034
:107300005A60FFF793FE20462946FFF7C2FFAC61A3
:107310000620BDE83840FFF78BBE00BF18240020D0
:1073200008B5302383F31188FFF7C8FF002383F3E8
:10733000118808BD154A0346D16810B5302282F382
:107340001188C26800680A6298421BD0486A82B9F4
:107350008860186802681A605360026A9860DA6090
:107360000362FFF763FEFFF7AFFE002383F311888C
:1073700010BD1468A24203D0A468A04238BF2046C2
:10738000D268E4E700238360EFE700BF1824002001
:10739000C3691943037DC1610A2B03D18369194273
:1073A00005D170470B2B06D183698B4303D1002392
:1073B0008361FFF73BBE704770B506460D46046813
:1073C000B44200D170BDE3682B43E36015B123697B
:1073D0001D4203D0A1686068FFF7DAFF2468EFE779
:1073E000EFF30983203383F30988002383F31188A3
:1073F00070470000302080F3118862B60C4B0D4AB4
:10740000D96821F4E0610904090C0A43DA60D3F871
:10741000FC20094942F08072C3F8FC200A6842F05F
:1074200001020A602022DA7783F82200704700BF49
:1074300000ED00E00003FA05001000E0302310B575
:1074400083F311880B4B5B6813F400630FD0EFF3E9
:1074500009844FF08073203CE36184F30988FFF7CF
:1074600013FE10B1044BA36110BD044BFBE783F383
:107470001188F9E700ED00E06322000866220008A9
:1074800008B500F0E5FD074800F0E6FF00F00CFA53
:1074900000F033FA00F06CFAFFF7C3FABDE80840D9
:1074A00000F002B81C98000801F03EB801720021FB
:1074B00030B5039C043304FB0325C361049B0060C7
:1074C0000363059B4060C1604261026185610462A3
:1074D00042628162C162436330BD0022416AC26080
:1074E0004161016182626FF00101C262FFF7C3BEB8
:1074F00003694269934201D1C2680AB9181D7047F5
:107500000020704703691960C26800210132C2601F
:10751000C269134482690361934224BF436A0361D1
:10752000FFF79EBE38B504460D46E3683BB162697D
:107530000020131D1268A3621344E36207E0237A5C
:1075400033B929462046FFF77BFE0028EDDA38BD27
:107550006FF00100FBE7C368C269013BC360436988
:10756000134482694361934224BF436A4361002309
:107570008362036B03B11847704770B5302304462C
:1075800083F31188866A3EB9FFF7CCFF054618B130
:1075900086F31188284670BDA36AE26A13F8015B7E
:1075A0009342A36202D32046FFF7D5FF002383F363
:1075B0001188EFE72DE9F84F04460F4691469A46A9
:1075C0004FF0300888F311880026B346A56A4DB9FC
:1075D00051462046FFF7A6FF20B185F311883046BB
:1075E000BDE8F88FA16AE56AA9EB06036D1A9D4212
:1075F00028BF1D46402D15D93846402201F005FD13
:10760000A36A403740334036E26AA3629A4202D806
:107610002046FFF7A0FF8BF311884E45DFD288F399
:107620001188D3E738462A4601F0EFFCA36A2F44BD
:107630002B442E44E8E710B5029C04330172C36169
:1076400003FB042100238362C362039B0060036386
:10765000049B4060C46042610261816104624262D5
:10766000436310BD026A6FF00101C260426A426169
:10767000026100228262C262FFF7FDBD03464069DB
:107680001A69824201D1DB681BB950F8043B0B60D8
:10769000704700231846FAE7C368C2690133C36024
:1076A00043690021134482694361934224BF436AC2
:1076B0004361FFF7D5BD38B504460D46E3683BB1DD
:1076C000236900201A1DA262E2691344E36207E005
:1076D000237A33B929462046FFF7B2FD0028EDDAB8
:1076E00038BD6FF00100FBE703691960C268013A19
:1076F000C260C269134482690361934224BF436A32
:10770000036100238362036B03B11847704770B5B0
:1077100030230D460446114683F31188866A2EB93C
:10772000FFF7C9FF10B186F3118870BDA36A1D7001
:10773000A36AE26A01339342A36204D3E16920465B
:107740000439FFF7D1FF002080F31188EDE72DE920
:10775000F84F04460F4691469A464FF0300888F39A
:1077600011880026B346A56A4DB951462046FFF759
:10777000A2FF20B185F311883046BDE8F88FA06ADA
:10778000E56AA9EB06032D1A9D4228BF1D46402D30
:1077900017D93946402201F038FCA36A40374033FC
:1077A0004036E26AA3629A4204D8E169204604396D
:1077B000FFF79AFF8BF311884E45DDD288F31188CD
:1077C000D1E739462A4601F020FCA36A2F442B4416
:1077D0002E44E6E70269416903468A4216D1C06831
:1077E000A8B1986A98B10438801A10D01060D9688E
:1077F00001200139D960D9690A4499691A618A421C
:1078000024BF5A6A1A6100229A62704700207047AA
:1078100073B5044640F2E7350B4E236820469B695A
:1078200001A9984701280DD1AC46002101984FF4D9
:107830007A72E0FB06C100236046FAF717FDFFF7F6
:10784000DAFCEAE702B070BDA0860100036810B55B
:107850005B680C469847C36813B153F8340010BDF9
:1078600000696043FBE7036810B55B680C46984706
:10787000C3681BB103EBC403586810BD0069FCE783
:10788000036810B55B680C4698474069204410BDFA
:1078900008B50C30FFF74EFD002008BD08B50C30D0
:1078A000FFF73EFD002008BD00F034BC044B0C3057
:1078B00040F80C3C012300F8083CFFF7F9BC00BF7E
:1078C0002897000810B53023044683F3118881609F
:1078D00000F02CFC02230020237180F3118810BDDE
:1078E00010B53023044683F3118800F033FC0123E4
:1078F0002371002383F3118810BD00F033BE0123F0
:10790000037000234360C3600374704738B50446B6
:10791000302383F3118800254B6841608360C56084
:1079200000F030FE0223237085F31188284638BD0D
:1079300038B5302585F311880125C4688D402C4366
:10794000C46000F0CFFE002383F3118838BD10B56A
:10795000044690F8763080F87E3001F04BF863688A
:107960001B6813B10121204698470323237010BDE3
:1079700001F01EB8012310B538220446002100F89A
:107980002C3B01F03AFB00236360A36010BD10B5EF
:107990003023044683F311882022416000210C30FB
:1079A00001F02BFB204601F0A3F8022300202370F6
:1079B00080F3118810BDF8B50446302383F3118895
:1079C000002600F0FBFF254601233746666005F8D8
:1079D000083B283455F8043F73B1586920B16FF063
:1079E00001010C30FFF722FC2B68986920B16FF081
:1079F00001010C30FFF71AFCA5422E60EAD1FFF717
:107A000063FB87F31188F8BD70B500EB8103054671
:107A100050690E461446DA6018B11422002101F0B4
:107A2000ECFAA06918B11422002101F0E6FA3146FF
:107A30002846BDE8704000F0E7BFF8B504460027CF
:107A4000836800F10C0503F00113836000F1280640
:107A500055F8043F73B1586920B16FF001010C3043
:107A6000FFF7E4FB2B68986920B16FF001010C303F
:107A7000FFF7DCFBB5422F60EAD12046BDE8F840B5
:107A800001F066B8F0B4012500EB8104E468478991
:107A9000A4698D403D43458123600023A26063605B
:107AA000E360F0BC01F09CB8F0B4012500EB810468
:107AB000E468078964698D403D43058123600023A4
:107AC000A2606360E360F0BC01F0ACB810B503786D
:107AD000052B0BD1064CC820236C43F01003236404
