:020000040800F2
:1020000000040020392200083B2200083B2200087F
:102010003B2200083B2200083B2200083B2200082C
:102020003B2200083B2200083B220008E162000836
:102030003B2200083B2200083B2200085B7200089C
:102040003B2200083B2200083B2200083B220008FC
:102050003B2200083B2200083B2200083B220008EC
:102060003B2200083B2200083B2200083B220008DC
:102070003B2200083B2200083B2200083B220008CC
:102080003B2200083B2200083B2200083B220008BC
:10209000AD7200083B2200083B2200083B220008EA
:1020A0003B2200083B2200083B2200083B2200089C
:1020B0003B2200083B2200083B2200083B2200088C
:1020C0003B2200083B2200083B2200083B2200087C
:1020D0003B2200083B2200083B2200083B2200086C
:1020E0003B2200083B2200083B2200083B2200085C
:1020F0003B2200083B2200083B2200083B2200084C
:102100003B2200083B2200083B2200083B2200083B
:102110003B2200083B2200083B2200083B2200082B
:102120003B2200083B2200083B2200083B2200081B
:102130003B2200083B2200083B2200083B2200080B
:102140003B2200083B2200083B2200083B220008FB
:102150003B2200083B2200083B2200083B220008EB
:1021600072B6264880F30888254880F309882548F8
:1021700025490860022080F31488BFF36F8F03F0B5
:10218000E9FD03F0C6FB4FF0553020491B4A914250
:102190003CBF41F8040BFAE71D49194A91423CBF84
:1021A00041F8040BFAE71B491B4A1C4B9A423EBFFD
:1021B00051F8040B42F8040BF8E700201849194ABB
:1021C00091423CBF41F8040BFAE703F0C7FD03F06E
:1021D000C2FD154C154DAC4203DA54F8041B884778
:1021E000F9E701F0D1FD124C124DAC4203DA54F87C
:1021F000041B8847F9E703F0AFBD0000000400208E
:10220000000C00200020000808ED00E00000002085
:1022100000040020B0820008000C0020880D00207F
:10222000880D0020E81600206021000860210008C9
:10223000602100086021000892E700F000F8FEE746
:102240002DE9F04FC1F80CD0C3689D46BDE8F08F72
:10225000002383F311882846A047002003F046FF9F
:10226000FEE703F09DFE00DFFEE7000053B94AB928
:10227000002908BF00281CBF4FF0FF314FF0FF308E
:1022800000F00CB8ADF1080C6DE904CE05F0D9FAF8
:10229000DDF804E0DDE9022304B07047704700BFB9
:1022A0000220704701280DD805290BD8102A09D81B
:1022B000662301EB011103FB0010034B024433F8CA
:1022C0001200704701207047307B000801207047E2
:1022D00008B5FFF7FBFF08BD0120704701207047DC
:1022E00008B5FFF7FBFF08BD704708B5FFF7FCFF17
:1022F00008BD000013B502AB03E903000F4B1B78C8
:10230000B3B99DF8053073B16AB100F0D7FC04464B
:102310000146009800F0A0FC2046009902B0BDE8FC
:10232000104001F0B5BA009800F0B0FC0446F3E7A5
:10233000009800F0C3FC0099F0E700BF900D00206A
:10234000034610B400885C880A4640EA0440998835
:1023500010BCFFF7CFBF10B504460121FFF7F0FF17
:102360002146FFF7B5FF10BD10B504460021FFF769
:10237000E7FF2146FFF7B9FF10BD704708B500F031
:1023800083FBFFF7FAFFBDE8084046F2A81003F010
:10239000B2BE08B5FFF7F2FFBDE8084002F0B0BFDB
:1023A00008B5FFF7EBFFBDE8084002F0ADBF38B558
:1023B00001210546FFF7C4FF2946044602F0EFF865
:1023C000D8B329462046FFF78BFFB0B329462046F5
:1023D00002F004FD88B32946204602F0F1F960B30B
:1023E0002946204602F078FC38B32946204602F000
:1023F00043FD10B36B797BB147F65A439C4223D01F
:102400000ED847F601439C421BD047F603439C423B
:1024100015D0B4F5F84F0ED02846FFF75DFF0DE05C
:1024200047F65B439C4212D047F65C439C42F3D193
:1024300000F0E8FFF0E7FFF7ACFF002038BD00F048
:10244000F3FFFFF7ADFFF8E700F0E8FFE4E700F087
:10245000E8FFE1E708B502F0A0FEBDE8084000F0A3
:102460001FB808B500F021F8BDE8084002F09ABE98
:10247000704701207047704738B50546FFF7F9FFF0
:10248000044610B12846FFF7F6FF204638BD7047D6
:1024900010B50446FFF7ECFF2046FFF7EDFF10BD37
:1024A00008B50020FFF7F4FF08BD08B502F02AFDCB
:1024B000FFF7EEFF08BD000010B502F023FD074B4B
:1024C00004461A78824207D0187002F0BDFE044B11
:1024D00018602046FFF7DCFF10BD00BF880D00200C
:1024E0008C0D00201FB56C4684E803009DF8053074
:1024F0000BB100F0B7FE0023ADF80E3094E80300F6
:10250000ADF80C10C9B2029002AC29B994E80300EE
:1025100000F0ECFD04B010BD2046FFF71CFF0028C2
:10252000F4D1F7E70379012B02D1008800F0E6BB74
:102530007047000010B50446002838D0031FDBB2F6
:10254000A02B11D81A4B0146186802F051FD20B19A
:10255000204600F035FE00F0CDFE204600F028FEBB
:10256000BDE8104000F0C6BE00F12003DBB2072B2F
:1025700007D800F007040120A040C0B200F04CFED4
:10258000EEE700F15B03DBB2022B05D8BDE810409B
:10259000243880B202F0D6BC5834E4B21A2C06D8E3
:1025A000044B33F81400BDE8104002F0E7BC10BD46
:1025B000000C0020C87C000808B5034648B3021F81
:1025C000D2B2A02A05D800F0FBFDBDE8084000F01B
:1025D00091BE00F12002D2B2072A07D800F007030B
:1025E00001209840C0B200F01FFEEEE700F15B0250
:1025F000D2B2022A04D8BDE80840002002F0A2BCF2
:102600005833DBB21A2B04D8BDE80840002002F092
:10261000B5BC08BD38B505460C46FFF78BFF1CB9A5
:102620002846FFF7C9FF38BD6420013C03F063FD75
:10263000A4B2F4E708B539280CBF50210021FFF7F8
:10264000E9FF08BD08B528B100F0E6FDBDE8084087
:1026500000F050BE08BD08B528B100F0E5FDBDE8AA
:10266000084000F047BE08BD2DE9F8438779814650
:102670000C46457900F0C0FD3F090646F0B12E46F4
:10268000E5B1C4F3072303F0F002402A09D004F1B6
:102690002002D2B2072A23D91FB903F0E003202B6E
:1026A00020D0A64B5E7816F0040607D0022000F07A
:1026B00079FE00F0A1FD80F00106F6B2C4F3033309
:1026C0000B2B3DD8DFE813F010001000540054002D
:1026D000AE003C003C003C00C50027013C013C0131
:1026E0000026EBE73E46E9E7C4F30723C4F30327DC
:1026F0000F2B88BF3F01E4B285B157B104F120032D
:10270000DBB2072B384600D92CB900F085FD00F06C
:10271000F1FD20464CE000F095FDF8E72046FFF77C
:102720004BFF6FB104F12003DBB2072B384600D911
:1027300014B900F079FD01E000F08CFD00F0DAFD45
:10274000002E00F0598100F04FFD10F0010040F024
:10275000538189F8050000F041FD00F017FA484662
:1027600000F060F900F03AFDBDE8F84300F018BA57
:10277000C4F3072303F0F003C4F30328202BE4B2CF
:1027800018BF4FEA08182CB1012C34D0002D3CD0D2
:10279000DFB1BEE7694B5B78590714D45DB1B8F17E
:1027A000000F04D0404600F037FD00F0A3FD0020EC
:1027B000FFF7C0FEC4E72846FFF7FEFEB8F1000FA2
:1027C000BED04046B5E755B11FB94046FFF73AFFC6
:1027D000B6E7012FB4D1404600F064FDB0E7002F0A
:1027E000AED14046FFF737FF404600F069FD404656
:1027F00000F044FDA4E715B1052FA1D8E5E7042FAB
:102800009ED84046FFF727FF9AE7002FF9D0392CD2
:102810000CBF4FF4FA50012003F06DFC2046FFF787
:10282000CBFE8DE714F4406FC4F3812307D0012B56
:1028300086D165B1C4F3090002F0A0FB80E725B1A1
:10284000C4F3090002F07EFB7AE72846FAE728463F
:10285000F2E714F4407F2DD1F5B914F0100018BF41
:102860000F20C4F342134FEA8303DBB21CBF98402E
:10287000C04304F00F0202FA03F2C4F3812418BF2C
:10288000C0B2D2B2022C40EA02000DD0032C0ED00E
:10289000012C06D000F052F902F034FBFFF7F8FDEE
:1028A0004EE700F043F9F7E700F050F9F4E700F0E5
:1028B0003AF9F1E7C4F301220DB3D207ECD514F0D5
:1028C000100318BF0F20C4F342124FEA8202D2B2A3
:1028D0001CBF9040C04304F00F0101FA02F1C4F3A1
:1028E000812418BFC3B2C9B2022C43EA01000CD044
:1028F000032C0DD0012C05D000F06EF9CCE7012A95
:10290000CAD9DCE700F060F9C6E700F06DF9C3E76B
:1029100000F02AF9C0E7E7B2C4F3032435B120463A
:1029200000F034F93846FFF78DFEB5E73846FFF77B
:1029300092FE204600F034F9AEE700BF8415002077
:102940005FFA84F8A8F1F003042B3CD8DFE803F029
:1029500003210D141D0035B1042F9DD8C4F30420AC
:1029600000F028F998E7052FF7E7C4F30420002DBD
:10297000E0D100F00BF98FE725B1C4F3042000F09B
:10298000FEF889E700F0F8F886E71C4B5B785B07F8
:1029900004D4C4F30420002DCCD0EAE74DB1C4F335
:1029A0000424204600F0F2F80321204600F0D8FC71
:1029B00072E7012000F0F6FC012F7FF66DAF0220D8
:1029C00000F0F0FC68E73DB11FB14046FFF7B2FDF3
:1029D00062E7C4F30420CCE75FB1B8F1390F0CBF54
:1029E0004FF4FA50012003F086FB4046FFF7E4FD68
:1029F00052E7C4F304209DE7BDE8F8838415002066
:102A000038B501880446407900F084F9054600F0A5
:102A1000F3F800F087F829462046BDE83840FFF774
:102A200023BE0000037910B50446B3B1FFF7BFFC25
:102A300068B900F0E1FB80B1637973B1074B5B7853
:102A40005B070AD5BDE81040022000F0ABBC204671
:102A5000FFF7D6FF2046FFF787FC10BD8415002046
:102A600008B5002002F06EFA002002F087FA00F0AC
:102A7000F9FBBDE8084000F03DBC08B500F0A8FB3C
:102A8000BDE80840FFF7ECBF08B500F0D5FBBDE896
:102A90000840FFF7F2BFC0F30333062BC2B213D0D6
:102AA00094BF0E33063303F00F03012B10D8F02A26
:102AB00010D004D8E72A8CBF002001207047F42AE8
:102AC00014BF002001207047E72A03D9F12AF7E755
:102AD000002070470120704708B50346007930B1E7
:102AE000188800F00BF9BDE80840FFF7D4BF08BD17
:102AF00082B002AB03E9030002B0704782B002ABC0
:102B000003E9030002B07047704708B5FFF7FCFF08
:102B100008BD000008B5FFF7F8FF014B187008BDAD
:102B2000B90D00207047FFF7F5BF0000024B1B787E
:102B30001843FFF7EFBF00BFB90D0020024B1B7811
:102B40001840FFF7E7BF00BFB90D0020024B1B780C
:102B50005840FFF7DFBF00BFB90D0020704708B530
:102B6000FFF7FCFF08BD000008B5FFF7F8FF014BB9
:102B7000187008BDB80D00200020FFF7F5BF012335
:102B800003FA00F0C0B2FFF7EFBF00000123034AD1
:102B9000834010781843C0B2FFF7E6BFB80D00209D
:102BA0000123034A8340107820EA0300FFF7DCBFCB
:102BB000B80D00200123034A834010785840C0B26A
:102BC000FFF7D2BFB80D0020024B1B781843FFF768
:102BD000CBBF00BFB80D0020024B1B781840FFF799
:102BE000C3BF00BFB80D0020024B1B785840FFF751
:102BF000BBBF00BFB80D0020704701F00703C90834
:102C000030B501EB4101012401390A4400219C4007
:102C1000E4B212F8015F20FA01F343F300036B40C2
:102C2000234001315D4003291570F2D130BD0022EF
:102C300010B500F00704C00800EB40000144104646
:102C40008B5CE34003F00103934001321843032AF5
:102C5000C0B2F5D110BD000017B40C46C0F3072177
:102C60000529ADF804000CD89DF80430102B08D8C5
:102C7000204603EB0113044A194403B010BCFFF7CC
:102C8000BCBF03B010BC7047910D002082B0ADF8FE
:102C90000400C0F3072005280AD89DF80430102B43
:102CA00006D8054900EB0010184402B0FFF7BFBF7B
:102CB000002002B0704700BF910D002073B50324BF
:102CC0000C4BADF804001E780B4B1B781E4346FAE4
:102CD00004F3DB0705D4013CF9D20025284602B0F5
:102CE00070BDE5B22846019900F0E3FD80B20128ED
:102CF000F1D0F3E7B80D0020B90D002007B5ADF80D
:102D000004000198FFF7DAFF019903B05DF804EBC6
:102D100000F0CFBD13B5104BADF804101B782BB1EC
:102D2000019802B0BDE81040FFF7E8BF70B101980C
:102D3000FFF7C4FF044601460198FFF78DFF2046C8
:102D4000019902B0BDE8104000F0B3BD0198FFF753
:102D50009DFF0446F3E700BF900D002010B501244D
:102D600004FA02F204FA01F11143CAB2014091429D
:102D700004FA03F406BF2043C0B2A04310BD000014
:102D800008B513460A46014603480078FFF7E6FFF8
:102D9000BDE80840FFF7E8BEB80D0020F8B50C4BC1
:102DA0000C4E1C780C4D3378A34200D1F8BD05EBD6
:102DB000C40335F834005F889A88D98840EA074010
:102DC00042EA01410134FFF799FE04F00704EAE703
:102DD000BA0D0020BB0D0020BC0D0020064B10B426
:102DE00018885C889A88D98840EA044042EA014100
:102DF00010BCFFF783BE00BFFC0D0020194AF8B5D8
:102E000093790F2B0AD8537943B1174B17491B7885
:102E10000D7816885788164CAB4200D1F8BD04EBEC
:102E2000C3010879D0B134F83300B04216D14879E3
:102E3000A0B94888C01B80B2C7280FD80120937959
:102E400060F3071393718B7960F3071305488B7157
:102E5000FFF7E8FDBDE8F840FFF7A0BF013303F03E
:102E60000703D9E7FC0D0020BA0D0020BB0D0020A0
:102E7000BC0D0020F0B50D4B0D4C1B7826780D4C89
:102E8000B34201D10020F0BD04EBC3056F788F423F
:102E900006D114F83370874202D16D79954203D17F
:102EA000013303F00703EBE70120ECE7BA0D002044
:102EB000BB0D0020BC0D00202DE9FF47E94604466C
:102EC000894D01460622484604F023FE2B7994F8EA
:102ED000008061786779B4F802A02279C3B9002A2A
:102EE00000F0C780002F00F0F6802046FFF7F4FDC9
:102EF000002800F0F08008222146284604F009FE50
:102F00002846FFF70FFBFFF779FFFFF767FFB0E0F9
:102F10006B886E79AAEB03039BB2002E00F0AB80A6
:102F2000C72B00F28480002A00F0A380AB792888A8
:102F30000F2B22884ED8904211D1002F45D101226B
:102F400062F30713AB71FFF749FF2846FFF76AFDED
:102F5000AB79A3710025284604B0BDE8F087A7BB74
:102F60003A464046FFF786FF4046FFF783FF054697
:102F70000028EFD10098FFF7C1FEC0F30332032A07
:102F8000C3B208D8012A10D910F4706F12D0A279F8
:102F90000F2A0FD8DFE7063202F00F02012A0ED9FE
:102FA0002046FFF73FFD3546D5E710F4706F01D09E
:102FB000002BD0D02033DBB2072BCCD9F0E7EF2B9E
:102FC000C9D90F33DBB2022BF7E7AB7943F001032A
:102FD000AB71BFE790420AD14FB92046A371FFF70A
:102FE00021FD08222146284604F093FD8DE7204666
:102FF000FFF772FD00286ED0002F6CD0AB791F2B2D
:103000000FD92A8802A8ADF808202A79ADF80AA0BD
:103010008DF80C2000228DF80E308DF80D20FFF772
:1030200001FD08222146304804F073FD6BE7AB79BF
:103030000F2B0ED899E80300FFF75AFD2846FFF73B
:10304000F1FC08220021284604F05BFDFFF7C6FED4
:1030500080E772B1298822889142C8D1002FC6D159
:103060002046A371FFF7DEFC08223946284604F00B
:1030700048FD01256FE7C72B31D8002AF9D057B397
:103080002A8823889A421DD1AB79DA0714D40F2BF2
:1030900012D9A37103F0F003F02B06D0A379C3F388
:1030A0000312013262F30713A3712046FFF7BAFC43
:1030B000082221460C4897E7082221460A4804F0D6
:1030C00028FDD6E72046FFF707FD0028A9D1AB79F8
:1030D00043F00103AB712046FFF7A4FCC9E799E870
:1030E0000300FFF705FDACE7FC0D0020F0B585B04F
:1030F0006C4684E803002046FFF7DEFE284F0646B4
:10310000284D68B19DF804301BB194E80300FFF727
:10311000F5FC254C28783B78834226D105B0F0BDDC
:1031200002AB94E8030083E803009DF804103878AC
:103130002A780029EDD0441C04F0070494420AD0F8
:103140001946194B082203EBC00004F0E2FC3C7066
:10315000FFF724FEDDE7FFF797FC0822314613480E
:103160003E702E7004F0CDFCD3E704EBC000FFF7F7
:10317000A3FE0028D2D02B7834F8330004EBC3032D
:103180005E889A88D98840EA064042EA0141FFF702
:10319000B5FC2B78013303F007032B70BAE700BFAF
:1031A000BB0D0020BA0D0020BC0D0020FC0D00203E
:1031B000024B0146186801F081BF00BF000C0020DF
:1031C000024B0146186801F091BF00BF000C0020BF
:1031D000014B186801F0A2BF000C0020014B1878C9
:1031E000C0087047240E0020024B187800F007003A
:1031F000704700BF240E0020034B187810F0070022
:1032000018BF0120704700BF240E0020014B187822
:10321000704700BF480E0020024B1A781043187008
:10322000704700BF480E0020024A137823EA0003CB
:1032300013707047480E00200022014B1A7070472F
:10324000480E0020024B1A7810431870704700BFD8
:10325000470E0020024A137823EA000313707047D8
:10326000470E00200022014B1A707047470E0020C5
:10327000704708B5FFF7FCFF08BD000008B5054A18
:103280001378034204D023EA00001070FFF7F1FF27
:1032900008BD00BF250E0020704708B5FFF7FCFFF2
:1032A00008BD000010B505490B7830EA030403D0CF
:1032B00003430B70FFF7F1FF10BD00BF260E002087
:1032C00008B5054A1378034204D023EA00001070C1
:1032D000FFF7E3FF08BD00BF260E002008B5044B32
:1032E0001A781AB100201870FFF7D7FF08BD00BF89
:1032F000260E002010B5124B124A1B781278124C81
:103300001343124A20681278037032B113430370DA
:1033100001F050FE08B1FFF7E1FF246820222046AB
:103320000B4904F0DEFB48B121462022084804F096
:10333000F0FB2046BDE8104001F0ECBD10BD00BF21
:10334000480E0020470E0020000C0020260E002012
:10335000040E0020704708B5FFF7FCFF08BD000011
:10336000094A10B5527852070AD5084C41EAC00103
:103370002170FFF70BFC2078C008FFF7ECFF10BDB1
:10338000BDE81040FFF702BC84150020240E002089
:10339000002008B5024B1870FFF7DDFF08BD00BF25
:1033A000240E002008B50A4A137823EA00001070A2
:1033B00042070CD198420AD0064B5B785B0706D5D2
:1033C000C008FFF7EDFBBDE80840FFF7E1BF08BD0F
:1033D000240E002084150020094A08B55378C3F351
:1033E000800181420AD060F382035370108800F09C
:1033F0003CF8BDE808400220FFF7D4BF08BD00BF7D
:1034000084150020044B5878C0F3800080F0010040
:1034100000F00100FFF7E0BF841500200120FFF756
:10342000DBBF0020FFF7D8BF08B500F04FFDBDE8B7
:1034300008404FF6FF71002000F02ABD08B50020BB
:1034400000F0BFFC4FF6E663984203D1BDE80840A8
:1034500001F046B8002008BD022000F0A3BC032004
:1034600000F0A0BC042000F0ACBC0146042000F039
:103470000FBD01460F2000F019BD0146132000F0DA
:1034800015BD0020FFF7F9BF08B50020FFF7F1FFD9
:10349000FFF7F7FF08BD000013B5002400F016FD8C
:1034A0004FF6E661002000F0F3FC0021022000F05E
:1034B000E1FC0021032000F0DDFC1C4B4FF4A05187
:1034C00004201C7000F0E4FC2146062000F0D2FC31
:1034D000FF21072000F0CEFC2146082000F0E6FC8A
:1034E0002146242000F0C6FC2146172000F0C2FC33
:1034F00021460C2000F0BEFC21460D2000F0BAFC55
:10350000002300226846CDE900231821082200F09C
:1035100097FC2146202000F0C9FC204600F0F5FF72
:1035200001F01DF8FFF7B0FF02B010BDB90D00208B
:10353000FFF7B2BF01460E2000F09CBC73B501F04E
:10354000BBFE0B4D04462B8883420ED00026ADF8FF
:10355000006001F0B1FEADF80460ADF8020002AB0E
:1035600013E90300FEF7BEFF2C8002B070BD00BF60
:103570004A0E002008B501F067FE024B1860024BAE
:10358000186008BD680E0020640E00207047704768
:1035900008B5FFF7FCFF08BD704708B5FFF7FCFF53
:1035A00008BD01207047000008B5054800F06AFA20
:1035B00000F08AFCFFF7EAFFFFF7EAFF08BD00BF53
:1035C0007D3A00080120704708B5FFF7FBFF08BDF2
:1035D0007047704708B5FFF7FBFFFFF7FAFF08BD1C
:1035E00008B500F071FABDE80840FEF750BF08B515
:1035F00001F028FE00F0C3FF00F034FBFFF7F0FFFE
:10360000FFF7CBFF08BD00002DE9F04F85B0FFF7B5
:10361000C8FF30B9FFF792FF05B0BDE8F04FFEF7E5
:103620004BBF2C4F00F038FB3E460024E0B256F86A
:10363000045B00F073FA052C49D0854204F10104C3
:10364000F4D0254B1B789B0701D500F06DFAFFF7EE
:10365000BBFF00264FF0010B00905FFA86F9484649
:1036600000F05CFA57F8043B0446984229D0002544
:103670004FF0010843400DF1080A13EA080F18D073
:10368000009AB2B101938DF808508DF8099001F0BD
:1036900013FE14EA080F14BF01210021ADF80A003F
:1036A0008DF80CB08DF80D109AE80300FEF71AFFA4
:1036B000019B0135EDB2112D4FEA4808DDD147F8E5
:1036C000044C0136062EC8D1FFF754FFA4E785420B
:1036D000B7D19FE74C0E00206C0E002038B500F0EB
:1036E000F3F8B0F5A44F044643D2B0F5A04F80F0F4
:1036F000AE80DF2816D8CC2800F28C80A7280AD804
:10370000A42879D8012804D0031F9BB2A12B28BF7D
:103710000024204638BDA0F1A8039BB21A2B71D912
:103720000024F6E7B0F5804F19D2B0F5005F80F0C5
:103730009D80E728EDD9A0F580739BB2B3F5F85FC3
:10374000EED2C0F3072000F043F90546E0B200F0E6
:10375000BBF82D0205F4F85540EA050450E0C0B26C
:1037600000F0B2F804F47064204340F4204084B2C6
:10377000CFE7B0F5A54F22D245F25F23984253D848
:1037800045F23F2398420FD845F21F23984244D870
:10379000012300F00304C0F38502A34043EA42136F
:1037A00043F40D439CB2B4E7012300F00304C0F3DB
:1037B0008202A34043EA421343F40C43F2E745F28A
:1037C000BF2398420AD845F29F23984200F01F0079
:1037D00035D84AF2F40343EA00249AE7A0F5A5435A
:1037E000403B9BB21F2B9BD8040204F4F85444F4D2
:1037F000204444F0F0048CE7A0F1240444F4804415
:10380000A4B286E7214B5834E4B233F8144044F4B0
:1038100088447EE740F4A044F2E74AF2F10300F066
:103820001F0443EA042474E7012300F00304C0F3F7
:103830008202A34043EA421343F40A43B2E700F092
:10384000C7F8040204F4F85444F4005461E700F0AB
:103850001F0000F0BDF8C306C4F3431448BF0001C5
:10386000240200B2044344F41044C9E7C0F3042026
:1038700000F0AEF80546E0B200F026F82D0205F49F
:10388000F855054345F40055ACB242E7FE7C00080C
:1038900082B0ADF80410C1F30721052906D89DF8C0
:1038A0000420102A02D802B001F076B9002002B03C
:1038B000704707B5ADF804100199FFF7E9FF03B0B1
:1038C0005DF804EBFFF70ABFE7284FD8DF2807D8D9
:1038D000312864D00ED8292857D02A2866D07047BE
:1038E000A0F1E003072B41D8DFE803F015402328BF
:1038F00031403C41392804D0822802D035283FD0BD
:103900007047324B1A7892071FD15B7813F0080F7B
:1039100018BF292070472D4A1378D9074DD4527803
:1039200012F0010F22D013F0100F14BF0020E3207B
:103930007047264B1B7813F0040FF3E7234A1378E4
:1039400059073CD45278D207EDD5E02070471F4B81
:103950005A7891070AD51B7813F0100F14BF002076
:10396000E7207047194B1B781A07F5D47047174AA0
:103970001378190725D452789107EDD5E4207047C4
:10398000124B1B7813F0200FC2E7104B1A789206E7
:1039900019D45B7813F0080F18BF392070470B4B10
:1039A0001B7813F0400F18BF2A207047074B1B7875
:1039B00013F0400F18BF3120704739207047E220C4
:1039C0007047E62070473520D0E700BF84150020FF
:1039D000294A1378590707D500F01801082927D17B
:1039E00000F0F70040F00400190707D500F01801B7
:1039F000182926D100F0E70040F014005278D107D2
:103A000007D500F01801082924D100F0F70040F094
:103A10000100920707D500F01802182A23D100F000
:103A2000E70040F01100DB0648BF00F0E7007047F8
:103A300000F01401042904BF00F0FB0040F008006E
:103A4000D2E700F01401142904BF00F0EB0040F0AD
:103A50001800D3E700F01101012904BF00F0FE00B7
:103A600040F00800D5E700F01102112A04BF00F071
:103A7000EE0040F01800D6E78415002000207047C3
:103A800000207047014B1860704700BF040C0020F5
:103A9000FFF7CABC08B500F0FFF840F6B83002F0F6
:103AA0002AFB00F0F9F8002000F038F8C30705D52C
:103AB000FFF7EEFFBDE8084001F022BC08BD08B5E5
:103AC000FFF7E8FF08BD000008B5FFF7B7FC08B92D
:103AD000FFF72EFDFFF7C0FC084B1870FFF7C2FC84
:103AE000074B1880FFF7EBFFFFF7B9FCFFF71BF858
:103AF000044B1878BDE80840FFF731B86C0E002081
:103B000084150020B80D0020704708B5FFF7FCFFB2
:103B100008BD704708B5FFF7FCFF08BD014B53F81F
:103B200020007047A015002070474FF4076002F096
:103B30005BB900BF00BF00BF00BF00BF00BF00BF38
:103B400000BF00BF00BF00BF00BF00BF00BF00BF7D
:103B500000BF00BF00BF704708B5FFF7E6FF08BD14
:103B600008B5302383F31188012100F00F03994039
:103B7000032220F00F0003F027FB002383F31188BA
:103B800008BD000038B506240B4D55F8040B421C47
:103B900001D0FFF7E5FF013C14F0FF04F5D111243B
:103BA000064D55F8040B431C01D0FFF7D9FF013C2B
:103BB00014F0FF04F5D138BD787D0008347D00088D
:103BC0002DE9F843254F064657F821300D465C1C79
:103BD00040D0302282F311884FF0010823F00F0902
:103BE00003F00F0308FA03F421460622484603F0C7
:103BF000EBFAC9F81440002484F31188FFF799FF09
:103C000011234146DFF858C05CF8042B501C23D028
:103C100022F00F00806802F00F0220FA02F212F088
:103C2000010F0CBF0A460022013B13F0FF0344EAD8
:103C300002044FEA4101E7D157F82500431C01D0A7
:103C4000FFF78EFF211E18BF01212846FFF784FFD2
:103C500046F82540BDE8F8830022E5E7787D0008B6
:103C6000347D000810B51824FFF78CFF2246002190
:103C7000074803F046FF22460021064803F041FFB3
:103C8000062000F03BF8BDE81040FFF73EBF00BF44
:103C9000A01500208815002070B586B018220021DC
:103CA000684603F02EFF0024E1B268460134FFF7B6
:103CB00087FF062CF8D1182269460E4803F011FF41
:103CC000002814BF0126002607D06C46094D0FCCF2
:103CD0000FC594E8030085E8030033460622064931
:103CE000044800F00DF80446FFF714FF204606B024
:103CF00070BD00BF88150020A0150020704700008F
:103D00002DE9F04107460E461446DFF8508033B1E6
:103D1000012388F8003001F097FA114B186098F8E9
:103D200000501DB900252846BDE8F0810C4B1868ED
:103D300001F0CEFA0428F5D9A400224639463046CF
:103D400003F0CFFE40B122463946304603F0E1FE93
:103D5000002388F80030E6E70546F9E7740E0020F6
:103D6000700E002008B501F0E5FDFFF740FCBDE84E
:103D7000084001F0F5BD08B501F0F8FDFFF744FC7F
:103D8000BDE8084001F010BE08B501F021FA01F0CD
:103D9000CEFDFFF709FCFFF7E5FFFFF7ECFFFFF7AC
:103DA00019FCFAE7002307B5014601220DF10700CF
:103DB0008DF8073000F08CF89DF8070003B05DF82F
:103DC00004FB002307B5014602220DF10600ADF801
:103DD000063000F07DF8BDF8060003B05DF804FB86
:103DE00007B50422002301460DEB0200019300F009
:103DF0006FF8019803B05DF804FB07B501228DF858
:103E0000071001460DF1070000F067F803B05DF8F8
:103E100004FB07B50222ADF8061001460DF10600BD
:103E200000F05BF803B05DF804FB07B504220191D4
:103E300001460DEB020000F050F803B05DF804FB02
:103E4000F8B505461446D31D23F0070300AFADEBCC
:103E5000030D68460E4600F03BF8224669462846A8
:103E600003F03FFE20B122463146284600F035F8E7
:103E7000BD46F8BD38B50C460546FFF793FFA04296
:103E800005D021462846BDE83840FFF7B6BF38BD0B
:103E900038B50C460546FFF794FFA04205D02146F1
:103EA0002846BDE83840FFF7B4BF38BD38B50C46EA
:103EB0000546FFF795FFA04205D021462846BDE8FC
:103EC0003840FFF7B2BF38BD00F09EB900F03CB8F3
:103ED0000B460146184600F051B80B4601461846FD
:103EE00000F0DCB808B5064B4FF48062002118469C
:103EF00003F007FE4FF48162C0F8002408BD00BF44
:103F0000780E002010B5064C94F8043433B900F054
:103F100039FA10B1012084F8040410BD0220FCE736
:103F2000780E002010B5074C94F804343BB100F033
:103F300071FA18B10023012084F8043410BD022066
:103F4000FCE700BF780E002038B5FFF7DBFF044622
:103F500018B9FFF7E7FF204638BD00F01FFA054605
:103F6000FFF7C0FF012C06D1FFF7DCFF00280CBFD4
:103F7000002505F001052C46EDE7000008B50346D5
:103F800008469918B1F5806F05D80449194403F023
:103F9000C0FD012008BD0020FCE700BF780E002016
:103FA000F8B506460F4615460024AC4201D1012063
:103FB000F8BD07EB440106EB440000F07FFA00284F
:103FC000F6D00134F1E7F8B506460F461546002451
:103FD000AC4201D10120F8BD37F8141006EB4400C3
:103FE00000F0FEF90028F6D00134F1E700000000EF
:103FF00073B500F0D3F9044628B3FFF783FF4FF4FD
:104000000072054614490020FFF7DDFF124E0446FA
:1040100088B10FA3D3E900234FF48061304600F04C
:1040200097FB0422CDE9000169464FF48060FFF759
:10403000CAFF4400E4B2012D01D1FFF773FF4FF432
:104040008163C6F80034204602B070BDAFF3008033
:1040500025232284E49CF2CB780E0020044BD3F875
:104060000034B3F5006F01D3FFF7C2BF01207047E2
:10407000780E002010B5084C0146D4F8000400F07A
:10408000AFF940B1D4F800340233C4F80034BDE8CD
:104090001040FFF7E3BF10BD780E00208318B3F582
:1040A000806F2DE9F74F83468846154620D8544C3B
:1040B00004442146404603F014FD002800F09E8091
:1040C0002A464146204603F024FDFFF71BFF8146A8
:1040D00060B10026002785B9FFF7C0FF0446B9F19B
:1040E000010F06D1FFF71EFF10B102E0FFF71AFF24
:1040F0000024204603B0BDE8F08F012D98F80000A1
:1041000026D01BF0010F23D1BBF5804F33D298F896
:10411000013040EA0323012B1AD8002B0CBF6FF0AB
:104120007F036FF05F03002043EA5B2363F3070024
:104130004FEA5B0363F30F2080B2FFF79BFF012878
:10414000044656D1023D0BF1020B08F10208C2E70A
:10415000BBF13F0F0FD84BF04003DBB243EA002026
:10416000FFF788FF0128044643D1013D0BF1010B05
:1041700008F10108AFE7052DAA4628BF4FF0050A50
:10418000CBF3024343EACA03CDE9006752464146F6
:104190008DF800300DF103004FEA1B238DF801303C
:1041A0008DF802B003F0B5FCBDF80000FFF762FF28
:1041B000012804461DD1BDF80200FFF75BFF01286E
:1041C000044616D1012D0FD0BDF80400FFF752FFB1
:1041D000012804460DD1032D06D9BDF80600FFF7CE
:1041E00049FF0128044604D1A5EB0A05D344D04475
:1041F00071E714F0FD0F18BF002470E7012478E781
:10420000780E0020000000002DE9FF47FFF76AFE4E
:1042100000F008F930B9FFF765FE0024204604B02D
:10422000BDE8F0874FF4007200205549FFF7B8FE53
:10423000534D00287FD050A3D3E900234FF4806171
:10424000284600F085FA06460C4604224FF48060AA
:1042500002A9FFF7A5FEDDE902239C4208BF9642B2
:1042600001D0FFF73FFE4FF48167002638460DF17D
:10427000060100F023F9002851D0BDF80630002BCC
:104280004CD0C3F38111012907F10204ADF80830C5
:10429000DAB253D0022957D0002967D120460DF158
:1042A0000A0100F00BF9002860D09DF809309DF854
:1042B0000A109DF8082043EA01234FEA02485BBA3E
:1042C0009BB208F4E02848EA0308C2F3C20908EBED
:1042D0000903B3F5806F07F104044FEAD20A45D809
:1042E00012F0300F05D0204603A900F0E7F8E8B33C
:1042F000BC1D1AF0040F06D020460DF10E0100F08F
:10430000DDF898B302344A460DF10B0105EB0800C5
:1043100003F0FFFBB4F5006F2746A7D30120C5F8D3
:10432000007400BBFFF764FE044600287FF476AFFC
:10433000FFF7D8FD72E7FFF7D5FD6CE702F03F020B
:10434000C3F30723AB54E5E7510201F478511B0A8C
:1043500041EA4303591CB1F5806F07D2C2F3401202
:10436000EA546E54D6E7FFF779FEDDE727460020D2
:10437000D5E700BFAFF3008025232284E49CF2CB75
:10438000780E0020002108B5034802F019FAB0FAAF
:1043900080F0400908BD00BF40160020F8B5002598
:1043A00001240C4F0C4E3B68AB4201D82046F8BDAF
:1043B00030680A4B1968036829445B6998470128EB
:1043C000306888BF002402F0A1F9012888BF0024CA
:1043D0000135E8E7080C0020801200200C0C0020BA
:1043E0000A4B73B51D68CB430646ADF80630084B43
:1043F0000222186871190368DC680DF10603A047F2
:10440000B0FA80F0400902B070BD00BF100C00206F
:104410008012002008B5024802F0E0F9012008BD32
:10442000401600202DE9F0471D4B1E4D00242B6047
:10443000FFF7F0FF2868A2460368DFF86C905B681E
:1044400098470646194B8768D3F8E027184B03EACC
:104450008228B168A1421FD90139091B2868C9F80F
:10446000001002F071F9404503D3D9F8007001340F
:10447000EFE7D9F80010286802F073F98244BAF522
:10448000006FF4D3D9F800100A4B7F1A28681F6018
:1044900002F05AF9084B18600120BDE8F08700BF10
:1044A00040160020801200200C0C002000F0FF1F9E
:1044B00000FCFF03080C0020100C0020064B10B578
:1044C0000C461968054B0144186802F057F9038837
:1044D0000120DB43238010BD100C0020801200203F
:1044E000252008B5FFF75EFC232801D0002008BD79
:1044F0002620FFF757FC0728F8D12720FFF752FCAA
:10450000A0F1290358425841F1E710B5041E0CBF31
:10451000FF2123212520FFF7ADFC002C0CBFFF213C
:1045200007212620FFF7A6FC002C08BFFF21BDE8CD
:10453000104018BF29212720FFF79CBC704708B501
:104540002820FFF72FFC08BD704710B50446FFF781
:10455000FBFFE1B22820BDE81040FFF78BBC08B597
:104560000020FFF7D2FF0020FFF7EFFF00F0C2FAB4
:1045700000F04DFBBDE808400120FFF7C6BF08B5BD
:10458000FFF7DCFFFFF7DBFFFFF7DEFFFFF7A8FF1A
:1045900018B9BDE80840FFF7E2BF08BD704708B58D
:1045A0000346487940B1A3F5EE427F2A03D8D8B23A
:1045B00000F039FB002008BD0120FCE7FF23037059
:1045C000704708B5FFF7FAFF08BD00207047F8B53F
:1045D00004460D46FFF7F9FF002840F0B880237825
:1045E000013B122B48D8DFE803F00A14425C626EEC
:1045F0007171714747767A808B96999CA70000234A
:1046000063700C23A37029462046BDE8F84001F0F2
:1046100053B96378013B032B2ED8DFE803F0020C7B
:104620000F2200F011FE030EA370030CE370030AC7
:1046300023716071E7E7FFF782FFF4E7A778E61CD4
:10464000052F06F10306DEDCF8B2FFF767FA030C6C
:1046500006F8033C030A06F8023C06F8010C013791
:10466000EEE70023A370E37023716371CBE76378F7
:10467000022B04D0052B10D0FF232370C3E7E3786F
:10468000A07840EA0320237940EA0340637940EAB6
:10469000036000BAFFF759FFB5E7A078FFF77EFF88
:1046A000B1E7E278A178607800F0F9F9BFE76279C4
:1046B0002379A17843EA02235BBAE27860789BB25F
:1046C00000F003FA9FE700F015FA9CE72946204620
:1046D000FFF777FF97E700F06CFA607093E700F060
:1046E0006AFA030A6370A0708DE76078A378E178B6
:1046F00040EA032040BA221D80B200F05EFA82E751
:104700006078A378E17840EA032040BA221D80B2A5
:1047100000F069FA77E700F07AFA74E700F0B4F98C
:10472000DBE76078A378E17840EA032040BA221DF5
:1047300080B200F007FA66E76078A378E17840EA93
:10474000032040BA221D80B200F012FA5BE7F8BDE8
:104750002DE9F0414FF0120C461805461946104657
:104760000027B54201D3BDE8F08115F8013B83EA8B
:104770000002A2FB0C830CFB01334801540114EB33
:10478000080440EAD26043EB00034FEAC218A418C1
:104790004FEAC11041EB03034FEA022E40EA526098
:1047A00014EB08044FEA012143EB000341EA1261D4
:1047B00014EB0E0443EB01030EEB03013819D0E7B1
:1047C00038B505464879002800F0DC80A5F5E045BD
:1047D000ABB2222B00F2BB80FEF744FE6A4C013DD7
:1047E0002080212D12D8DFE805F04DBD551B1F5943
:1047F000235D692FB5336D3771973B759F417B837F
:1048000027612B65477F8EA9B31651C5237843F0E6
:104810000103237095E0637843F00803637090E030
:10482000237843F00203F4E7237843F00403F0E72E
:10483000237843F00803ECE7637843F00103EDE7E6
:10484000637843F00203E9E7237843F01003E0E7DD
:10485000237843F02003DCE7237843F04003D8E7D4
:10486000FEF712F9237843F08003D2E7237823F090
:104870000C0343F00C03CCE7637823F0030343F00D
:104880000303CBE7237823F00103C2E7637823F027
:104890000803C3E7237823F00203BAE7237823F061
:1048A0000403B6E7237823F00803B2E7637823F024
:1048B0000103B3E7637823F00203AFE7237823F023
:1048C0001003A6E7237823F02003A2E7237823F040
:1048D00040039EE7FEF7D8F8237823F0800398E79B
:1048E000237823F00C0394E7637823F0030395E720
:1048F0002378C3F3800282F00102D2B262F3820312
:1049000062F3C30385E76378DA4302F0010262F3DE
:10491000000362F3410381E72378C3F3801282F03E
:10492000010262F3861374E7FEF7AEF82378C3F34F
:10493000C01282F0010262F3C7136AE70120FEF79A
:10494000F9FD2088FEF791FDFEF79EF8002038BDA6
:104950000020F4E72378C3F3001282F0010262F32F
:10496000041356E72378C3F3000282F0010262F3D6
:1049700000034EE76378C3F3C00282F0010262F3E2
:10498000C3034BE70120E2E784150020F8B5174B7D
:104990001749C2081F5C174B8D5C17499B5C00F0E0
:1049A00007008E5C03410541064113F0010405F048
:1049B000010506F0010602D0E120FDF7BBFD15B1AF
:1049C000E620FDF7B7FD3846FDF734FE15B1E620C9
:1049D000FDF7F2FD14B1E120FDF7EEFD26B1BDE8D3
:1049E000F8402C20FDF726BEF8BD00BF907D0008E2
:1049F000207E0008307E0008107E000870B5044656
:104A00000E46207800283CD0012837D16378013B3E
:104A1000032B03D8DFE803F00D13181D01343546CE
:104A20000134002DEDD06420013D01F064FBEDB2B6
:104A3000F7E7A078A51CFDF7FDFD2C46EFE7A07871
:104A4000A51CFDF777FDF8E7A078A51CFDF7B4FDE0
:104A5000F3E700250A2014F8023F0A49CA5C52070E
:104A600006D4002DDBD0642001F045FB013DF8E7C2
:104A7000303B00FB053514F8013FEFE7FFF786FFF9
:104A8000CDE770BDA58100080420704722235200A5
:104A900003FB0122CC2303FB0020293070470328AD
:104AA00038B510D805290ED8102A0CD8FFF7EEFF1C
:104AB0000546FFF777F90402681CFFF773F9A4B203
:104AC000204380B238BD0020FCE7032870B51C46A7
:104AD0000FD805290DD8102A0BD8FFF7D7FF0546A8
:104AE000210AFFF7C7F9E1B2681CBDE87040FFF783
:104AF000C1B970BD2DE9F84300240025E7B216E0E6
:104B0000FDF7CEFBA0425FFA86F914DD4A46414626
:104B10003846FDF7C7FB03464A464146384601364C
:104B2000FFF7D3FF112EEBD10135062D05D000265E
:104B30005FFA85F8E4E70123EEE70134042CDCD1C9
:104B4000BDE8F88370B5144600F129055618B44243
:104B500000D170BDA5F12903B3F54C7F06DA2846D4
:104B6000FFF720F904F8010B0135F0E70020F9E721
:104B700070B5144600F129055618B44200D170BD35
:104B8000A5F12903B3F54C7F03DA28462178FFF716
:104B900071F901340135F0E7032810B406D805296E
:104BA00004D8102A02D810BCFFF779BF002010BC2F
:104BB000704710207047A720704770B5144600F268
:104BC00059355618B44200D170BD6FF45673EB18C6
:104BD000A62B06DC2846FFF7E5F804F8010B0135A3
:104BE000F0E70020F9E770B5144600F25935561881
:104BF000B44200D170BD6FF45673EB18A62B03DCE2
:104C000028462178FFF736F901340135F0E710B571
:104C100040F25934204600210134FFF72BF9B4F556
:104C2000806FF7D110BD0F28F7B5044651D840F278
:104C3000FF30FFF7B7F800284BD140F259352CBBB5
:104C4000CDE900442846FFF7ADF86F1C8DF8000051
:104C50008DF80140E8B3012812D13846FFF7A2F8D9
:104C6000AE1C8DF80100A0B3431E022B19D83046AC
:104C7000FFF798F8EF1C8DF8020050B38DF8034051
:104C800000216846FFF7BAFE3D46DBE7B5F5806FC9
:104C90001FD02846FFF786F808B9013CE4B2013579
:104CA000CDE7042810D102253046FFF77BF8013606
:104CB0000DF8050068B17C2808D105F108030DEB5B
:104CC0000305002305F8073C3746D9E70135072DD2
:104CD000EAD103B0F0BD000047F61643984210B584
:104CE0000C461BD1FEF792FA62790D4B72B100F0BF
:104CF000AA00002813BF01220022292035201A70A3
:104D0000FEF756FAFEF7F6FA002010BD1B78002BCE
:104D10000CBF29203520FEF753FAF3E70120F4E712
:104D200084120020F8B5144642791D469DF818708B
:104D3000284B92B11C7000F0BFFA274B188004F189
:104D40002003DBB2072B44D8012004F00704A04065
:104D5000C0B2BDE8F840FDF775BC1E78A6422ED162
:104D60001D4B188800F0ADFAC72828D8AE4205F1CF
:104D7000200415D006F12003DBB2072B06D8012052
:104D800006F00706B040C0B2FDF765FCE3B2072BA2
:104D900006D8012005F007039840C0B2FDF752FC89
:104DA0003846E4B2FDF746FC072C12D8012005F086
:104DB0000705A840C0B2BDE8F840FDF74CBC04F1BF
:104DC0002003DBB2072B04D8012004F00704A04025
:104DD000F0E7F8BD88120020861200200346A3F5F4
:104DE000F843183B07B50846062B3BD8DFE803F02D
:104DF000171E0410252C330026230093E12347F6C9
:104E00001A411A46FFF78EFF002003B05DF804FB3D
:104E100027230093E52347F61B411A46F2E7262392
:104E2000E022009347F61841E123EBE72723E42231
:104E3000009347F61941E523E4E72623E222009395
:104E400047F61C41E123DDE72723E622009347F6DE
:104E50001D41E523D6E72823E522009347F61E41AE
:104E60000123CFE74B7913B10022024B1A700120C6
:104E7000CBE700BF8812002038B547F67743984249
:104E800005D047F6784398421BD0012038BD4B79B6
:104E900093B100F01FF8FDF779FE00F01BF804460F
:104EA00000F01EF8054600F021F82946024620468B
:104EB000FDF766FF0020E9E700F00CF8FDF770FE53
:104EC000EBE74B7913B100F00BF8E4E700F008F8DA
:104ED000F4E70000014B1878704700BF160C002063
:104EE000014B1878704700BF150C0020014B187853
:104EF000704700BF140C0020014B1860704700BFC2
:104F000090120020024B186808B1036818477047D8
:104F100090120020084B1B686BB1084A127842B10E
:104F2000074A92F90020002ABFBF02784270062289
:104F300002705B6818477047901200206C0D0020CB
:104F4000841500200B4B07B51A8882420ED01880BA
:104F5000094B1B6853B103228DF80500000A8DF838
:104F60000600DB688DF8042001A8984703B05DF8BF
:104F700004FB00BF8C120020901200200B4B07B5E1
:104F80001A8882420FD01880094B1B685BB104223B
:104F90008DF80500000A8DF80600DB688DF8042006
:104FA0000DEB0200984703B05DF804FB8A12002065
:104FB000901200200C4B821C1B789BB10B4B93F979
:104FC0000030002BB4BF1E2306230020013BDBB2C0
:104FD00012F8011B09B10130C0B2013BDBB2FF2B5B
:104FE000F6D170470623F0E76C0D002084150020F1
:104FF000F1B1114B1B789BB1104B93F90030002B92
:105000000EDAEF294FEAD10212D801231044827838
:1050100001F007018B40134214BF012000207047AC
:10502000431C073013F8012F8A4203D08342F9D181
:1050300000207047012070476C0D0020841500206F
:1050400000224FF0FF3330B5441C14F8015F8D424D
:105050000BD0B3F1FF3F01D105B953B20132062A9B
:10506000F3D15A1C01D01844817030BD002210B514
:10507000431C073013F8014F8C4208BF1A7083425B
:10508000F8D110BDEF294FEAD10307D81844012306
:10509000827801F007018B40134383707047EF293A
:1050A0004FEAD10308D801221844837801F00701A0
:1050B0008A4023EA020383707047000010B4094C51
:1050C000034624780A463CB1074C94F90040002C72
:1050D00002DA10BCFFF7D6BF1146184610BCFFF726
:1050E000AFBF00BF6C0D00208415002010B4094C28
:1050F000034624780A463CB1074C94F90040002C42
:1051000002DA10BCFFF7CBBF1146184610BCFFF700
:10511000ADBF00BF6C0D002084150020074B02308E
:105120001B7843B1064B93F90030002B03DA1E22A3
:10513000002102F0E6BC0622FAE700BF6C0D002059
:1051400084150020704708B5FFF7FCFF08BD00007C
:1051500008B50130024BC0B21870FFF7F4FF08BD6C
:1051600094120020032008B5024B1870FFF7EBFFE4
:1051700008BD00BF94120020FFF7EABF012008B568
:10518000024B1870FFF7DFFF08BD00BF941200202C
:10519000FFF7F4BF70477047704708B5FFF7FCFF93
:1051A00008BD704708B5FFF7FCFF08BD10B5FFF755
:1051B000F1FF0024FEF770FDFFF7EDFFE0B2FEF710
:1051C000ADFC18B90134062CF8D110BD0120FCE764
:1051D00008B501F0D5F8BDE8084000F0EBBD08B512
:1051E000FDF738F9BDE8084040F2A46000F083BF45
:1051F00008B5FEF721F8FEF735F8FDF7E9FF0020C6
:10520000FFF7A0FE0020FFF7B9FEBDE80840FDF75C
:1052100028B90000302383F31188064BDA69064B66
:105220001A600023054A1360054A136083F311884E
:10523000704700BFE0150020A01200209C12002043
:1052400098120020FFF7E6BF302370B583F3118872
:10525000124B13481349DC6903680A68E41AA24236
:10526000114A0AD9A3F58333E03B036010680F4B62
:1052700004F583340344E03413600C6016680021A5
:1052800081F311884FF47A7509480023E4FB050186
:10529000084AFCF7EBFF304470BD00BFE01500206A
:1052A000A01200209C1200209812002088598F0222
:1052B0009F860100A086010008B5FFF7C5FF80B2F8
:1052C00008BD10B50446FFF7BFFF001B80B210BD3C
:1052D00010B50446FFF7B8FF001B10BDBFF34F8F9A
:1052E0000549064BCA6802F4E0621343CB60BFF382
:1052F0004F8F00BFFDE700BF00ED00E00400FA059E
:1053000008B5FFF7EBFF000044F24D2208B5024B51
:105310009A62FFF7E3FF00BF006C00407047000097
:1053200008B5302383F31188034800F079FC00238B
:1053300083F3118808BD00BFEC0C002070B50A4C47
:105340000E46154619460022234643F8042FB0F8AE
:105350007A2045EA062000F029FB206060680028DA
:1053600018BF204670BD00BFA412002090F87A102C
:10537000074A0229137807D1012B01D0062B05D14A
:105380005278044B1A707047024A1370704700BF7E
:10539000AC1200205014002070B5044606480D469B
:1053A00003680BB100F04AFD2B462146BDE8704072
:1053B000024A014800F03ABD38140020C1530008E9
:1053C00038B50C46302383F311880B78042B03D0B7
:1053D000002383F3118838BD124B1B78DB09F7D10A
:1053E000114D2B78002BF3D0104B1B78002BEFD0F6
:1053F0000B899B0705D40823012120460C4A01F0A4
:10540000A7FA28780B4B4FF47A72A0FB0303002114
:10541000002300F2E730FCF729FF21468000FFF768
:10542000BBFFD5E784150020521400206C0D00202E
:1054300018140020A086010038B590F87430044696
:1054400003F07F02212A69D113F0800F90F87530A4
:1054500024D0022B1ED0032B14D0012B5ED190F848
:10546000783033B9404A826608220120E266236719
:105470006AE03E4B90F8762083661A7090F87A20A6
:105480000023F2E7B0F87830002B47D1384A826623
:105490000122EAE7374B01228366F1E70A2B34D079
:1054A0000B2B0BD0092B39D190F8783013F0FD0F6E
:1054B00034D1314B02228366304BD6E7B0F87830D6
:1054C00003BB90F876502A4B002D14BF0122002216
:1054D0001A7017D1274B1A78A2B1302282F31188A3
:1054E0001878274B4FF47A72A0FB030300210023A6
:1054F00000F2E730FCF7BAFE21468000FFF74CFFD0
:1055000085F311880022A266BAE71E4990F8772039
:105510000978184BCD091A70F4D1DDE740F28163A8
:10552000B4F874209A4214D194F87920616894F800
:1055300078304D6843EA0223204694F8762094F8A8
:105540007710A84708B9002038BD43680268A366F1
:1055500096E70D4B93F8B630002BF4D02046BDE80B
:10556000384000F03DBB00BF18140020F8130020A5
:105570006C0D002052140020AC1200206D53000866
:10558000A086010084150020180C002010B5064AE2
:10559000064C117824784B1C03F00F039C421EBF6D
:1055A000034C1370605410BDC8150020C9150020AD
:1055B000B815002038B504460846052944D8DFE868
:1055C00001F0384303383844302383F31188244DE5
:1055D00001212046234A01F06BF904212046224A8A
:1055E00001F066F9204695F8B41005F1440201F087
:1055F0005FF995F8B510204605F1680201F058F9F9
:1056000095F8B61021B1204605F18C0201F050F951
:10561000164800F0CEFA002383F31188144B1B7850
:1056200013B10520FFF7B2FF0220BDE83840FFF7B5
:10563000ADBFFFF7ABFF302383F311880B4800F0B9
:1056400095FA002383F3118838BD302383F3118842
:10565000064800F0A3FA002383F311880520E4E74D
:10566000180C0020747E0008507E0008EC0C00200E
:10567000AE120020102208B50021044802F041FAC1
:105680000023034A1370034A137008BDB8150020A5
:10569000C8150020C9150020F8B5284D284C002257
:1056A0002E782378B3422FD102B12370F8BD237036
:1056B000244B1870244B93F87F10081E18BF01204C
:1056C000FFF750FDEBE7002223701E4B1A70FFF727
:1056D0008FFD1D4B93F87F10081E18BF0120FFF7A8
:1056E0004BFDDCE72370184B93F87F10081E18BFA2
:1056F0000120FFF72DFDD2E7002123700846F8E7CF
:105700002370FFF73BFDCAE7194601220F4801331A
:10571000415C03F00F0310460529C3D801A757F8D1
:1057200021F000BF01570008A5560008E556000803
:10573000F9560008AF560008C7560008C8150020E3
:10574000C9150020AE12002060160020B8150020F8
:1057500070B51B4C054604F10802A26504F11C0259
:10576000C4F8802004F13002C4F8A02004F1B0068F
:10577000D4343146204600F0B7F931464FF4805614
:105780002046104C00F0DAF906224FF480512046F2
:1057900001F01AFD2846666101F061F841F2883097
:1057A00000F0A9FC0849284601F045F802223146DC
:1057B000204601F009FD0022044B1A6070BD00BFB5
:1057C000180C002000080140407E0008381400201A
:1057D00070B504464FF480560A4D06224FF48051AE
:1057E000284601F0F1FC20466E6101F038F82046B1
:1057F000054901F020F831462846BDE870400222F4
:1058000001F0E2BC00080140407E0008014B18781E
:10581000704700BF5014002070B5302304460D4679
:10582000164683F311880F480378042B03D0002316
:1058300083F3118870BD01230289A34013420AD06B
:1058400000EB8400C3684FF47A7158690C3000F0A3
:105850005FFC0130EBD033462A462146014801F077
:1058600077F8E4E76016002010B50D4B04461B786E
:1058700053B9014608220120FFF7CEFF202221461E
:10588000084802F046F910BD074B014693F9003075
:10589000002BB5BF2022082204200120ECE700BF26
:1058A0006C0D00201814002084150020704701465C
:1058B00003220420FFF7B0BF202903460A4610B494
:1058C00007D1054850F8D41F4C681946234610BC30
:1058D000184710BC704700BF180C002070B50A4C68
:1058E00088B004F1D405D4F8D43020221E6A694669
:1058F00000232846B04720B1C1B26846FEF767FED4
:10590000F1E708B070BD00BF180C00207047704769
:10591000704708B5FFF7FAFF01F07CFFFFF7F7FFCC
:1059200008BD08B501F07EFFFFF7F2FF08BDFFF7E5
:105930002FBC000008B5FFF79DFE0648FFF708FFE3
:10594000054B064A41F288301A60BDE8084000F075
:10595000D2BB00BF6016002054140020700D002040
:10596000014B1868FFF7C8BA5414002010B50D4C4D
:10597000FFF792FE2378052B13D12378052B03D054
:10598000BDE81040FDF7B6BCFFF729FCFFF70EFCA1
:105990000028F2D0034800F0EDFF0248FFF718FF9F
:1059A000EBE710BD60160020FFF798BF020A032A3C
:1059B0000FD007D8012A23D0022A07D15B20124A30
:1059C0001A607047212A0DD0222A12D000200246E8
:1059D000F6E7C0B20228F9D80C4A0D4952F8202047
:1059E000405CEDE70229F1D80A4A092052F821204B
:1059F000E6E70229EAD8084A084852F82120EFE7EA
:105A00001220074ADCE700BFE27E0008B87E0008EB
:105A1000B47E0008A87E00089C7E0008987E0008DE
:105A20003D7F000813B5446BE36F1A6811780429B1
:105A300015D1217A022912D11979012312898B40BB
:105A400013420CD101A904F1440000F095FD024677
:105A500028B1E06F019B0179006800F079FF02B086
:105A600010BD0C3000F024BD4FF0FF330C3000F0BF
:105A70001FBD443000F0E9BD4FF0FF33443000F06B
:105A8000E4BD0C3000F0F7BC4FF0FF310C3000F0FB
:105A9000F2BC443000F0B9BD4FF0FF32443000F0AA
:105AA000B4BD10B5C36F04461A681178042916D125
:105AB000017A022913D15979012352898B4013426B
:105AC0000DD10C3000F092FC024640B1E06FA36AA9
:105AD0004179043B0068BDE8104000F027BF10BDCD
:105AE000406BFFF7DEBF00007FB50346012604468A
:105AF0000D460F4A43F8042B43600E4B067202908A
:105B00000193CB680C3000934B690A6A314600F070
:105B10004BFC094B02940193AB68314600932B690F
:105B2000EA6904F1440000F004FD04B070BD00BF58
:105B300020800008E15A0008255A000830220B682E
:105B400082F311880A7903EB820290624A7911325A
:105B500043F822008A7912B103EB82039862022390
:105B6000C1670372002383F31188704738B5044678
:105B700001250221043000F09FFB04F10C006FF0BE
:105B80000101257500F0F7FA84F84C5004F1440047
:105B90006FF00101BDE8384000F0EDBA10B5012109
:105BA0000446043000F088FB0023237584F84C3051
:105BB00010BD38B5044600250C3000F00CFC04F193
:105BC0004400257500F0CCFC201D84F84C500121C8
:105BD00000F072FB2046BDE83840FFF762BF0000CE
:105BE00090F87420034602F06002202A14D190F845
:105BF00075200020212A02D81F2A03D87047222AA4
:105C000007D07047054A9A660722DA6618670120AE
:105C100070479866D866F9E700207047800D00202D
:105C200073B5C36F04461A681178042928D1017A24
:105C3000022925D11979012312898B4013EA020523
:105C40001ED100F14406304600F042FDC0B130469E
:105C500001A900F091FCE36F06461A7E4AB1019853
:105C60001A692946121A304401F04BFFE36F1B6991
:105C70000193E06F32460179019B006800F068FEF5
:105C800002B070BD00EB81032DE9F3419E6A04462A
:105C90000D46FEB1302383F311880821301D04EB3B
:105CA000850700F009FBFB6806F144085B691B6887
:105CB00013B1404600F06EFC404601A900F05CFCC8
:105CC000024650B1019B2946204600F041FE0023C8
:105CD00083F3118802B0BDE8F081FB685A6912684D
:105CE000002AF4D01B8A013B1342F0D1F36F1B7ED4
:105CF000002BECD104F17402E5E7113110B550F836
:105D00002140C4B1302383F311880421601800F0CE
:105D1000D3FAE26F04F10C001368527903EB8203AB
:105D2000DB689B69596800F06BFB2046FFF7B9FE02
:105D3000002383F3118810BD70470000024B034A13
:105D40001A60034A5A607047CC150020E8160020FC
:105D50000050002070477047FEE7000070B508252E
:105D6000134C606823680146A268043B8A4219D834
:105D7000D31C1B1AC11E23F00303914288BF0023CA
:105D80001844E368C11EDA1C121A22F00302994279
:105D900088BF0022002101F0B4FE013D04F110048F
:105DA000DFD170BD53F8046F41F8046BDEE700BF2C
:105DB0004880000838B501230025074C2370656032
:105DC000FFF7BCFF0549064800F00CF902232370D9
:105DD00085F3118838BD00BFD8150020CC8000089D
:105DE000E015002000F03CB8034A516853685B1A84
:105DF0009842FBD8704700BF001000E010B50A4C75
:105E000023699A6891420CD85A68816003604260A5
:105E100010609A685860521A9A604FF0FF33A3617D
:105E200010BD1B68891AECE7E01500200361002310
:105E300010B410BCC2604361FFF7E0BF0368816823
:105E40009A680A449A60426813605A6000234FF0CF
:105E5000FF320360014B9A61704700BFE0150020DC
:105E600070B5124D2A46EB690133EB6152F8103FD1
:105E7000934206D030269A68013A9A602C69A3684A
:105E800003B170BD226861680A605160236083F3CA
:105E900011882046E3682169984786F31188616973
:105EA0000029EBD02046FFF7A9FFE7E7E015002027
:105EB00000238268037503691B6899689142FBD2CD
:105EC0005A6803604260106058607047002382681F
:105ED000037503691B6899689142FBD85A6803608F
:105EE000426010605860704708B50846302383F35D
:105EF00011880A7D0023052A06D8DFE802F00B0589
:105F00000503120E826913604FF0FF338361FFF7C0
:105F1000CFFF002383F3118808BD826993680133A2
:105F200093604268036813605A60EDE7FFF7C0BFF3
:105F3000054BD96808751868026853601A60012219
:105F40000275D860FCF77CB9E015002030B50C4B29
:105F50000446DD684B1C87B00FD02B466846094AC3
:105F6000FFF764FF2046FFF7E3FF009B13B168468D
:105F7000FFF764FFA86907B030BDFFF7D9FFF9E765
:105F8000E0150020E95E0008044B1A68DB689068A1
:105F90009B68984294BF002001207047E0150020C4
:105FA000084B10B51C68D868226853601A6001223B
:105FB0002275DC60FFF78AFF01462046BDE81040ED
:105FC000FCF73EB9E0150020044B1A68DB689268C4
:105FD0009B689A4201D9FFF7E3BF7047E0150020A4
:105FE000FEE7000070B5002504461A4B86B08562B6
:105FF00001630E46586000F07DF904F1100323613F
:1060000063614FF0FF33A361134BE561D9692B4600
:106010000A462046C4E9082304F1340180230F4ACC
:1060200024606460A560E562E56500F01DF8012369
:106030000B4AE06003750092726868460192B2688C
:10604000CDE90223074BCDE9043500F03FF806B057
:1060500070BD00BFD8150020E0150020D8800008D2
:10606000DD800008E15F000802228B604B620023A4
:1060700008618A8208460B62CB6170478368C168F9
:10608000A3F14C0243F81C2C026943F84C2C4269E2
:106090000C4843F8482C0C4A43F8180C43F82C2CB5
:1060A000022203F8142C002243F8201C03F8132CBE
:1060B00043F8041C43F8082C43F80C2CA3F12800E7
:1060C000704700BFE01500205122000808B5FFF717
:1060D000D5FFBDE80840FFF729BF0000024BDB6891
:1060E00098610F20FFF724BFE0150020302383F3D1
:1060F0001188FFF7F3BF08B50146302383F31188F9
:106100000820FFF723FF002383F3118808BD000058
:10611000054BDB6821B1036098610320FFF716BFD0
:106120004FF0FF30704700BFE015002003460068C5
:1061300020B100221A608161FFF7F8BE70470000AD
:10614000064BDB6839B1426818605A6013604360DF
:106150000420FFF7FBBE4FF0FF307047E015002032
:1061600003460068834205D002681A60536081616B
:10617000FFF7DCBE704738B504460D462068844200
:1061800000D138BD036823605C608561FFF7CEFEF7
:10619000F4E7034610B51B68984203D09C688A68F0
:1061A0009442F8D25A680B604A601160596010BD81
:1061B00000230060406083607047000038B581684C
:1061C000164B0446DD6891B92B6A8560C36028626E
:1061D00038BD8B600B7D7BB1062B14D10B684A68F0
:1061E000886913605A60FFF7D4FF8B699968AB68C0
:1061F0008A689A42EDD306E04A680B680846136045
:106200005A60FFF793FE20462946FFF7C2FFAC61B4
:106210000620BDE83840FFF78BBE00BFE015002028
:1062200008B5302383F31188FFF7C8FF002383F3F9
:10623000118808BD154A0346D16810B5302282F393
:106240001188C26800680A6298421BD0486A82B905
:106250008860186802681A605360026A9860DA60A1
:106260000362FFF763FEFFF7AFFE002383F311889D
:1062700010BD1468A24203D0A468A04238BF2046D3
:10628000D268E4E700238360EFE700BFE015002059
:10629000C3691943037DC1610A2B03D18369194284
:1062A00005D170470B2B06D183698B4303D10023A3
:1062B0008361FFF73BBE704770B506460D46046824
:1062C000B44200D170BDE3682B43E36015B123698C
:1062D0001D4203D0A1686068FFF7DAFF2468EFE78A
:1062E000EFF30983203383F30988002383F31188B4
:1062F00070470000302080F3118862B60C4B0D4AC5
:10630000D96821F4E0610904090C0A43DA60D3F882
:10631000FC20094942F08072C3F8FC200A6842F070
:1063200001020A602022DA7783F82200704700BF5A
:1063300000ED00E00003FA05001000E0302310B586
:1063400083F311880B4B5B6813F400630FD0EFF3FA
:1063500009844FF08073203CE36184F30988FFF7E0
:1063600013FE10B1044BA36110BD044BFBE783F394
:106370001188F9E700ED00E06322000866220008BA
:1063800008B500F0B9FD064800F0E8FE00F00AFA92
:1063900000F042FAFFF7C5FABDE8084000F002B885
:1063A0006881000800F042BF0172002130B5039CF3
:1063B000043304FB0325C361049B00600363059B56
:1063C0004060C16042610261856104624262816233
:1063D000C162436330BD0022416AC2604161016114
:1063E00082626FF00101C262FFF7C5BE03694269B4
:1063F000934201D1C2680AB9181D70470020704746
:1064000003691960C26800210132C260C269134485
:1064100082690361934224BF436A0361FFF7A0BE10
:1064200038B504460D46E3683BB162690020131D90
:106430001268A3621344E36207E0237A33B9294662
:106440002046FFF77DFE0028EDDA38BD6FF0010031
:10645000FBE7C368C269013BC360436913448269B7
:106460004361934224BF436A436100238362036B09
:1064700003B11847704770B53023044683F3118881
:10648000866A3EB9FFF7CCFF054618B186F311883E
:10649000284670BDA36AE26A13F8015B9342A362C7
:1064A00002D32046FFF7D5FF002383F31188EFE7DF
:1064B0002DE9F84F04460F4691469A464FF03008B2
:1064C00088F311880026B346A56A4DB95146204687
:1064D000FFF7A6FF20B185F311883046BDE8F88F9D
:1064E000A16AE56AA9EB06036D1A9D4228BF1D4605
:1064F000402D15D93846402201F00BFBA36A4037E6
:1065000040334036E26AA3629A4202D82046FFF73F
:10651000A0FF8BF311884E45DFD288F31188D3E7B3
:1065200038462A4601F0F5FAA36A2F442B442E443C
:10653000E8E710B5029C04330172C36103FB042138
:1065400000238362C362039B00600363049B40607B
:10655000C46042610261816104624262436310BDB2
:10656000026A6FF00101C260426A42610261002268
:106570008262C262FFF7FFBD034640691A69824228
:1065800001D1DB681BB950F8043B0B607047002356
:106590001846FAE7C368C2690133C3604369002142
:1065A000134482694361934224BF436A4361FFF706
:1065B000D7BD38B504460D46E3683BB123690020DA
:1065C0001A1DA262E2691344E36207E0237A33B939
:1065D00029462046FFF7B4FD0028EDDA38BD6FF0FC
:1065E0000100FBE703691960C268013AC260C26931
:1065F000134482690361934224BF436A0361002309
:106600008362036B03B11847704770B530230D46A2
:106610000446114683F31188866A2EB9FFF7C9FF35
:1066200010B186F3118870BDA36A1D70A36AE26A77
:1066300001339342A36204D3E16920460439FFF792
:10664000D1FF002080F31188EDE72DE9F84F0446D3
:106650000F4691469A464FF0300888F3118800267D
:10666000B346A56A4DB951462046FFF7A2FF20B1B7
:1066700085F311883046BDE8F88FA06AE56AA9EB7A
:1066800006032D1A9D4228BF1D46402D17D93946B5
:10669000402201F03EFAA36A403740334036E26AB6
:1066A000A3629A4204D8E16920460439FFF79AFFB1
:1066B0008BF311884E45DDD288F31188D1E7394636
:1066C0002A4601F026FAA36A2F442B442E44E6E71B
:1066D0000269416903468A4216D1C068A8B1986A26
:1066E00098B10438801A10D01060D968012001399F
:1066F000D960D9690A4499691A618A4224BF5A6AE1
:106700001A6100229A6270470020704773B50446F0
:1067100040F2E7350B4E236820469B6901A9984754
:1067200001280DD1AC46002101984FF47A72E0FBAC
:1067300006C100236046FBF799FDFFF7DCFCEAE7A2
:1067400002B070BDA0860100036810B55B680C46FE
:106750009847C36813B153F8340010BD0069604313
:10676000FBE7036810B55B680C469847C3681BB12C
:1067700003EBC403586810BD0069FCE7036810B55B
:106780005B680C4698474069204410BD08B50C3042
:10679000FFF750FD002008BD08B50C30FFF740FDA5
:1067A000002008BD00F006BC044B0C3040F80C3C47
:1067B000012300F8083CFFF7FBBC00BFE4800008A1
:1067C00010B53023044683F31188816000F0FEFB8E
:1067D00002230020237180F3118810BD10B53023EF
:1067E000044683F3118800F005FC01232371002384
:1067F00083F3118810BD10B5044690F8763080F808
:106800007E3000F07BFE63681B6813B101212046D7
:1068100098470323237010BD00F04EBE012310B52E
:1068200038220446002100F82C3B01F06AF90023CD
:106830006360A36010BD10B53023044683F3118854
:106840002022416000210C3001F05BF9204600F06D
:10685000D3FE02230020237080F3118810BDF8B509
:106860000446302383F31188002600F02BFE2546D2
:1068700001233746666005F8083B283455F8043F85
:1068800073B1586920B16FF001010C30FFF74EFC75
:106890002B68986920B16FF001010C30FFF746FCBE
:1068A000A5422E60EAD1FFF78FFB87F31188F8BD70
:1068B00070B500EB8103054650690E461446DA6058
:1068C00018B11422002101F01CF9A06918B114229A
:1068D000002101F016F931462846BDE8704000F06D
:1068E00017BEF8B504460027836800F10C0503F0D5
:1068F0000113836000F1280655F8043F73B158690D
:1069000020B16FF001010C30FFF710FC2B68986983
:1069100020B16FF001010C30FFF708FCB5422F6089
:10692000EAD12046BDE8F84000F096BEF0B401255B
:1069300000EB8104E4684789A4698D403D434581AB
:1069400023600023A2606360E360F0BC00F0CCBE73
:10695000F0B4012500EB8104E468078964698D4087
:106960003D43058123600023A2606360E360F0BCC7
:1069700000F0DCBE10B50378052B0BD1064CC82007
:10698000236C43F010032364FFF7B5FB236C23F063
:106990001003236410BD00BF005C00402DE9F047E8
:1069A00000260223054604464FF03008B146037026
:1069B000C66700F1280745F8086F55F8043F9BB1FA
:1069C00088F311882B68586920B16FF001010C30F1
:1069D000FFF7ACFB2B68986920B16FF001010C3018
:1069E000FFF7A4FB89F31188BD422E60E5D1204654
:1069F00084F8646000F0E4FD63681B6823B12046FE
:106A0000BDE8F04700211847BDE8F087F8B50378E6
:106A10000446052B27D080F8803005230370436897
:106A20001B680BB10421984725460026302745F8FE
:106A3000086F283455F8043F9BB187F311882B6801
:106A4000586920B16FF001010C30FFF76FFB2B6824
:106A5000986920B16FF001010C30FFF767FB86F3F6
:106A60001188A542E6D1F8BD0178052906D190F834
:106A70008020436802701B6803B11847704700000C
:106A800070B590F86430044613B1002380F8643088
:106A9000204604F1740200F00DFE63689B68B3B9F0
:106AA00094F8743013F0600539D00021204600F0CE
:106AB00071FE0021204600F05BFE63681B6813B185
:106AC000062120469847062384F8643070BD20468E
:106AD00098470028E4D094F87B2094F87A3043EA71
:106AE0000223E26E9A4288BFE36694F97430E56E41
:106AF000002B4FF0300380F2F580002D00F0E48091
:106B0000092284F8642083F3118800212046E36E73
:106B1000A26EFFF71DFF002383F31188D6E794F8D8
:106B2000752003F07F0343EA022340F202329342CE
:106B300000F0B78021D8B3F5807F4DD00DD8012B60
:106B400044D0022B00F08580002BAED104F17C02F2
:106B5000A2660222E2662367BDE7B3F5817F00F0FB
:106B60008D80B3F5407FA0D194F87630012B9CD175
:106B7000B4F87C3043F0020337E0B3F5006F3ED049
:106B80001CD8B3F5A06F36D0A3F5C063012B8CD809
:106B900094F87920616894F878304E6843EA0223CB
:106BA000204694F8762094F87710B04700283FF4F8
:106BB0007CAF4368A3660368E3661AE0B3F5106F21
:106BC00022D040F6024293427FF46FAF524BA3664D
:106BD0000223E3660023BEE794F87630012B7FF4AE
:106BE00064AFB4F87C3023F00203A4F87C30A566CF
:106BF000E56625676FE7494BA566E566ABE704F1F7
:106C00007F03A3660123D7E72378042B10D1302319
:106C100083F311882046FFF764FE85F31188032172
:106C2000636884F87F5021701B680BB12046984739
:106C300094F876304BB184F87F3004232370636876
:106C40001B6813B10221204698470023A366E36620
:106C500081E794F8783020461D0603F00F010AD52D
:106C600000F01AFD012804D002287FF41EAF2C4B3F
:106C7000ADE72C4BABE700F001FDF3E794F876307D
:106C8000002B7FF412AF94F8783013F00F01DCD0B2
:106C90001A06204602D500F0A5FDD6E700F08CFDCF
:106CA000D3E794F87630002B7FF4FFAE94F8783079
:106CB00013F00F01C9D01B06204602D500F06AFD73
:106CC000C3E700F055FDC0E7142284F8642083F385
:106CD00011882B462A4629462046FFF727FE85F3D2
:106CE0001188F3E65DB1152284F8642083F31188DE
:106CF00000212046E36EA26EFFF718FE0BE70B2281
:106D000084F8642083F311882B462A4629462046BE
:106D1000FFF71EFEE3E700BF10810008F7670008D9
:106D20000E8100080C81000838B590F864300446E4
:106D3000002B42D0063BDAB20F2A38D80F2B36D8B8
:106D4000DFE803F03B353508263635353535353542
:106D500035353B3B90F87A3090F87B20C56E43EA9E
:106D600002239D4214D2C3681B8AB5FBF3F203FBD6
:106D700012556DB9302383F311882B462A462946D4
:106D8000FFF7E6FD85F311880A2384F864300EE0EE
:106D9000142384F86430302383F3118800232046C1
:106DA0001A461946FFF7C2FD002383F3118838BD48
:106DB000036F03B198470023E7E70021204600F066
:106DC000E9FC0021204600F0D3FC63681B6813B186
:106DD0000621204698470623D7E710B590F864307F
:106DE0000446142B29D017D8062B05D001D81BB187
:106DF00010BD093B022BFBD80021204600F0CAFC45
:106E00000021204600F0B4FC63681B6813B1062122
:106E100020469847062319E0152BE9D10B2380F86B
:106E20006430302383F3118800231A461946FFF794
:106E30008FFD002383F31188DAE7C3689B695B68E1
:106E4000002BD5D1036F03B19847002384F8643039
:106E5000CEE70122090100F1604303F56143C9B2A5
:106E600083F8001300F01F039A4043099B0003F1CD
:106E7000604303F56143C3F880211A607047012223
:106E800000F01F039A4043099B0003F1604303F5A0
:106E90006143C3F88020C3F88021002300F16040E3
:106EA00000F5614080F800337047090100F160404F
:106EB000C9B200F56D4001767047062108B5084655
:106EC000FFF7C7FF06210720FFF7C3FF06210820B1
:106ED000FFF7BFFF06210920FFF7BBFF06210A20AD
:106EE000FFF7B7FF06211720FFF7B3FFBDE8084003
:106EF00006212820FFF7ADBF4FF0FF310E4B1A6976
:106F000019611A6900221A611869D868D960D968AC
:106F1000DA60DA68DA6942F08052DA61DA69DA69ED
:106F200042F00062DA61054ADB69136843F480735A
:106F30001360FFF7C2BF00BF0010024000700040A6
:106F4000194B1A6842F001021A601A689007FCD5C2
:106F50001A6802F0F9021A6000225A605A6812F0A8
:106F60000C0FFBD11A6842F480321A601A68910340
:106F7000FCD55A6842F4E8125A601A6842F08072EE
:106F80001A601A689201FCD51221084A5A60084A10
:106F900011605A6842F002025A605A6802F00C020C
:106FA000082AFAD1704700BF0010024000641D009B
:106FB0000020024010B5034C2046FFF7F5FB024BC2
:106FC000E36110BD4016002000200240C369064A5C
:106FD00059680A435A605968044A0A435A600022B1
:106FE000034B1A61704700BF23016745AB89EFCDA2
:106FF00000200240C269136943F0800313617047A7
:10700000004870471481000838B5044618462379B3
:10701000052B0CD003231F252371E36901F10061C7
:10702000DD6000F076FD02230020237138BD0120D1
:10703000FCE7F7B505460079052840D00420287103
:107040001F204FF6FF7CEC69E060206940F00100F2
:1070500020610AB910462AE021F00100ADF804C011
:1070600000F1006001F0010613F8017B08366E4460
:10707000013A06F8047C01F1010101D0CF07F1D4F7
:10708000BDF804700780E668F607FCD4E66806F0F1
:107090001F0E16F0100FC4F80CE007D1760703D4CA
:1070A000008880B28742D4D0032000E00620236904
:1070B00023F00103236102232B7103B0F0BD0120F3
:1070C000FBE70720704710B503790446052B14D061
:1070D00005231F220371C369DA601A6942F00202B4
:1070E0001A61FFF731FBE36900F10060586100208D
:1070F0001A6942F040021A6110BD0120FCE70379D1
:10710000052B09D1C369DA68D20707D41A6922F0BE
:1071100036021A61022303710020704709B9012069
:10712000704701230B60FAE710B503790446052B7D
:1071300012D0FFF709FB00F100631A1F03F57F73FC
:1071400052F8041F013105D19A42F9D100200223DF
:10715000237110BD0520FAE70120FAE7184B9A6960
:1071600042F07D029A619B690268164BDA60826880
:107170005A6042681A60C26803F58063DA60426947
:107180005A6002691A608269C3F80C24026AC3F863
:107190000424C269C3F80024426AC3F80C28C26AF6
:1071A000C3F80428826AC3F80028026BC3F80C2CC9
:1071B000826BC3F8042C426BC3F8002C704700BFED
:1071C0000010024000080140032AF0B528D10161F7
:1071D000154B9F5C002308221D461C461E4611F0DD
:1071E000800F4FEA04144FEA03134FEA06164FEAE2
:1071F00005150CBF44F00F043B4311F4004F0CBFC6
:1072000046F00F063D43013A4FEA4101E7D142689B
:1072100032402A4342600268224013430360F0BDBB
:10722000042A08BF4161D3E7308100084FF0E02312
:1072300040F2CF225A6100229A61072208210B20D6
:107240001A61FFF732BE08B5302383F31188FEF7C9
:10725000C9FD002383F3118808BD08B5FFF7F3FFCC
:10726000BDE80840FFF76AB80F4B10B51B6D04016D
:1072700003F1804303F5C04303EB0010E3581144CE
:1072800003F1005303F540535B004260002AA1EB79
:10729000020400DC10BD20786478023A40EA042041
:1072A00043F8040BF2E700BF005C00402DE9F74F04
:1072B0007F4C676CFB4363647B0502D57D48FFF719
:1072C0006DFB3E0506D5236C7A4843F00803236422
:1072D000FFF79CFBFD040AD5754B9A6C140406D489
:1072E0001A6C744822F008021A64FFF7BDFBB80557
:1072F00004D570484368DB6803B198476D4D3B0483
:1073000004D403B0BDE8F04FFFF718B807F00F0042
:10731000840004F18044861C04F5B84405EB860320
:10732000F9062268D3F804C044D42268DCF814308B
:1073300022F4784222F0F0025F6842F40042D3F86F
:1073400010E022601A687744D11B5F6017D0BCF848
:1073500010208A4228BF0A4699681A6171449960D0
:10736000FFF782FF236823F4F04323F0400383F008
:10737000300343F4004343F08003236029E00122FB
:107380002B89824023EA02032B81DCF8083013B1F9
:10739000014628469847302383F31188002105EBE6
:1073A0008606736858690C30FEF7C0FE002383F32D
:1073B00011880EE02368120523F4784323F0F003CC
:1073C00043F080032360C1B206D52846DCF80430C0
:1073D0009847374B5F6C92E7DCF818309A68019257
:1073E000334ADDF80490126D02F1804202F5C0428A
:1073F00002EB0017BA68D7F80C8002F1005202F5D0
:1074000040525200C8F309079646BB46BBF1010F34
:1074100009F1020938D828F001084FEA88584FEAE4
:107420009858B8451FBF4FEA570E52F82E20DDF886
:1074300004E00EF808209A683A449A605A683A4480
:107440005A601A68D21B1A601A8A013A92B21A82DA
:10745000BCF81230BB4200D80ABB012303FA00F289
:107460006B8923EA02036B8105EB86035B68DB68AB
:107470000BB110489847302383F3118805EB86063B
:107480007368986941688EE75EF804ABABF1020B54
:1074900009F802AC4FEA1A2A09F801ACB6E72368EA
:1074A00023F4904323F0700383F4405361E700BF5B
:1074B000005C0040601600200148FFF7AFB900BF34
:1074C0006016002008B50378012B12D0094B9842B2
:1074D0000FD11320FFF7D3FC1420FFF7D0FC0322B9
:1074E000054B1A6403F5DA33DA6922F40002DA6133
:1074F000DB6908BD60160020005C004090F87E301B
:10750000024A43F08003D364704700BF005C004030
:1075100000EB8103F0B5DE68274A3368146D03F091
:107520000303032B18BFB3FA83F304F18044726999
:1075300018BF5B0904F5C0440CBF4FF4C0635B0285
:107540004FEA011C04EB011572B100226A60328A15
:10755000D0F88470013222F001023A44C0F884204D
:1075600043F020034CF80470B269DAB1748A43F432
:107570000053621E3E2C93BF42F001020F4E52098F
:1075800001328BBF46EA8222520292B202F47C425E
:10759000EA600134D0F8842024F001041444C0F8D7
:1075A0008440AA608A0002F1804202F5B842106865
:1075B0000B4310601360F0BD005C00400080FFFFD3
:1075C00010B4002180240A4A11655164D4644468CF
:1075D000E4688C4214BF4FF43E444FF43C441464BE
:1075E0004022C0F88420034A10BCC260FFF790BF5D
:1075F000005C00404481000838B501780446012948
:1076000022D1124B98421AD1114B124DDA69132034
:1076100042F40002DA61DA691A6942F400021A617E
:107620001A6922F400021A611B6929640D21FFF70F
:1076300010FC0E211420FFF70CFC00232B642046C5
:10764000BDE83840FFF7BCBF38BD00BF6016002062
:1076500000100240005C0040402301220021C0F8DD
:107660008430930003F1804303F5B8431868013276
:10767000082A18601960F4D170470000054B53F8D0
:10768000210010F4405004D0B0F5805F0CBF012001
:1076900002207047005C0040054B53F8210010F0B9
:1076A000300003D010280CBF01200220704700BF1B
:1076B000005C00400B4B02F108001B6D03F180439E
:1076C00003F5C04303EB01139B6803F1005303F57B
:1076D00040535B001968043322F8021B9042F9D131
:1076E000704700BF005C004000EB8100C068826909
:1076F0001368B3B1408A0344013BB3FBF0F39BB280
:107700001382094A52F8213023F4904323F0700386
:1077100083F4405343F4004343F0800342F82130A4
:1077200070470123ECE700BF005C004000EB8100E4
:10773000C26810B553690C46128A196820468A42FD
:1077400028BF0A4699681A61FFF78EFD074A52F86A
:10775000243023F4F04323F0400383F0300343F458
:10776000004343F0800342F8243010BD005C004029
:10777000074A52F8213023F4904323F0700383F436
:10778000805343F4004343F0800342F821307047B4
:10779000005C0040074A52F8213023F4F04323F004
:1077A000400383F0100343F4004343F0800342F8A6
:1077B00021307047005C0040890001F1804101F5F3
:1077C000B8410B6803F44053B3F5405F09D00B6830
:1077D00023F4F04323F0400343F4204343F08003B9
:1077E0000B607047890001F1804101F5B8410B68D9
:1077F00003F03003302B0BD00B6823F4F04323F05D
:10780000400383F0200343F4004343F080030B6004
:107810007047704708B5FFF7FCFFBDE80840FFF769
:107820008FBB0000044A536843F00073536044F276
:107830004C22024B9A62704700000140006C0040ED
:1078400070472DE9F04786468C4608461546744633
:107850001946089E002B40F0C2808542B2FA82F29F
:1078600045D94AB1C2F1200300FA02FC2EFA03F313
:10787000954043EA0C0C94404FEA154EBCFBFEF8D1
:10788000A8B20EFB18CC08FB00F9230C43EA0C430A
:10789000994528D9EB1808F1FF3704D2994502D948
:1078A000A8F102072B44A3EB0903B3FBFEFC0EFB7C
:1078B0001C330CFB00F0A4B244EA0344A04214D9E8
:1078C0002C190CF1FF3304D2A04202D9ACF102030F
:1078D0002C44241A43EA07401EB10023D4403460EC
:1078E0007360BDE8F0874746DDE76346F1E792BB8A
:1078F0000121431B4FEA154EB3FBFEFCAFB20EFB5A
:107900001C330CFB07F8200C40EA0343984562D96E
:10791000EB180CF1FF3004D2984502D9ACF102000B
:107920002B44A3EB0803B3FBFEFC0EFB1C330CFB48
:1079300007F7A4B244EA0344A7424ED92C190CF12C
:10794000FF3304D2A74202D9ACF102032C44E41B5A
:1079500043EA0040C0E7C2F12003954020FA03F15A
:107960002EFA03F34FEA154EB1FBFEFC90400343A1
:10797000AFB20EFB1C100CFB07F8190C41EA0041DA
:10798000884504FA02F422D969180CF1FF3004D2B8
:10799000884502D9ACF102002944A1EB0801B1FBF2
:1079A000FEFC0EFB1C110CFB07F79BB243EA0143E4
:1079B0009F420ED9EB180CF1FF3104D29F4202D93D
:1079C000ACF102012B44DB1B41EA004192E7604627
:1079D000E3E76146F7E76046A3E76346B7E783421C
:1079E00006D916B9002108467BE7C6E900E0F9E7A9
:1079F000B3FA83F78FB9834201D3724508D8BEEB3F
:107A0000020460EB030301209C461EB9002168E7D5
:107A10003846FAE7C6E9004CF8E7C7F1200CBB404E
:107A200022FA0CF41C434FEA144920FA0CF3B3FB7E
:107A3000F9F8B8402EFA0CF101430EFA07F509FBEC
:107A400018301FFA84FE08FB0EFA0B0C43EA0043C1
:107A50009A4502FA07F240D9E31808F1FF3004D240
:107A60009A4502D9A8F102002344A3EB0A03B3FB11
:107A7000F9F809FB183308FB0EFE89B241EA03410D
:107A80008E452CD9611808F1FF3304D28E4502D9F6
:107A9000A8F10203214443EA0040A0FB0298A1EBB5
:107AA0000E014145CE46434602D306D14D4504D290
:107AB000B9EB020E68EB04030138002EA6D0B5EB3B
:107AC0000E0261EB030101FA0CFC22FA07F34CEA07
:107AD0000303F940C6E9003198E74046C5E743464D
